:020000040016E4
:10500000970200009382C2577390523097020000BB
:105010009382420F739072306F00902A000000005C
:105020000000000000000000000000000000000080
:105030000000000000000000000000000000000070
:105040000000000000000000000000000000000060
:105050000000000000000000000000000000000050
:10557C0073900234F322203493D2F201639102022D
:10558C00F3120034130181FC16CE1ACC1ECA2ADA8F
:10559C002ED832D636D43AD23ED006C811A04111FC
:1055AC0022C0178400001304A41DF322103416DC4F
:1055BC00F32300301EC26800EF00C010F322203429
:1055CC0093D2F20163940204F32220348563FD1319
:1055DC00B3F272002D43638962000A8597000000C4
:1055EC009380000A6F106009E252910216DCF242BD
:1055FC00638A02000943639562005255C25595A80F
:10560C000D4511A052558A856F10A0060323040086
:10561C009303130023207400631703008A82032171
:10562C004400411116C0732520348562FD12337578
:10563C005500EF00E008977200009382E2BF0E0560
:10564C00AA9203A5020003A34200E70003008323F0
:10565C000400FD13232074006392030202410C44E6
:10566C0041112EC013050000EF5030278245410137
:10567C0011C5BD2117840000130484106800EF00CD
:10568C002005E2529243739012347390033002441B
:10569C00F322203493D2F201639F0200F242624360
:1056AC00D2435255C2553256A25612578257C24057
:1056BC001301810311A04101730020300000000090
:1056CC0082800000F3227034232055008280000079
:0A56DC00832205007390723482806F
:0256E600FFFFC4
:1056E800C1676376F5029337051093C717008E07D5
:1056F80037070320930600029D8E3355F500930764
:1057080087BBAA9703C507003385A6408280370761
:105718000001C147E36EE5FCE147D9BFB307A040EC
:105728007D8DC1676373F5029337051093C7170022
:105738008E07370703203355F500130787BB2A97D1
:1057480003450700FD173E95828037070001C147D2
:10575800E361E5FEE147F1BF2A83AE82639206204A
:105768002A8737050320B287130585BB63FEC50A60
:10577800C1666374D60A9336061093C616008E0661
:10578800B353D6001E950345050093030002AA965D
:105798003385D340638BD300B395A200B356D300AF
:1057A800B317A600D58D3317A30013D30701B3D3BE
:1057B800650213960701418293560701B3F5650206
:1057C8001E85B3027602C205CD8E63FC5600BE96D6
:1057D8001385F3FF63E7F60063F556001385E3FFCF
:1057E800BE96B3865640B3D5660242074183B3F6E8
:1057F80066023306B602C206558FAE86637BC700C3
:105808003E979386F5FF6366F7006374C700938637
:10581800E5FF4205558D81458280B7030001C146E9
:10582800E36076F6E146A9BF814609CAC166637D91
:10583800D6089336061093C616008E06B355D600C2
:105848002E9583450500AE96930500023385D54015
:105858006393D5083386C240854513D30701B353F4
:10586800660293960701C1821355070133766602D3
:10587800B38276024206498E1E85637C56003E96A8
:105888001385F3FF6367F600637556001385E3FF1E
:105898003E9633065640B35266024207418333763A
:1058A8006602B38656024206518F1686637BD7007E
:1058B8003E971386F2FF6366F7006374D70013867A
:1058C800E2FF4205518D8280B7050001C146E367BA
:1058D800B6F6E146A5B7B3D5D200B317A600B39282
:1058E800A200B356D30033E6560093D20701B3D3D0
:1058F80055023317A30013950701418193560601FA
:10590800B3F5550233037502C205CD8E9E8563FC3F
:105918006600BE969385F3FF63E7F60063F56600BD
:105928009385E3FFBE96B386664033D3560242069C
:105938004182B3F6560233056502C206558E9A8631
:10594800637CA6003E969306F3FF6367F6006375D3
:10595800A6009306E3FF3E96C205098ED58DF5BDD8
:1059680063E8D514C16763FFF60213B7061013473F
:1059780017000E07B7070320B3D5E600938787BB48
:10598800AE9783C70700BA9713070002B305F7401D
:105998006311F702054563E056123336C300134519
:1059A80016008280B70700014147E3E5F6FC61472E
:1059B800D1B73397B600B356F600D98E611133D7F5
:1059C800F20022C213D4060126C0B3548702B39250
:1059D800B200B357F300B3E757009392060193D28E
:1059E80002013316B60033778702B3839202131588
:1059F800070113D70701498F2685637C77003697FF
:105A08001385F4FF6367D700637577001385E4FF98
:105A1800369733077740B3538702C207C18333777A
:105A28008702B38272024207D98F1E8763FC570030
:105A3800B6971387F3FF63E7D70063F5570013871B
:105A4800E3FFB69742054164598D9306F4FF337717
:105A5800D500B3875740F18E935205014182B303B5
:105A6800D702B386D2023307C702B382C202330613
:105A7800D70013D7030132976373D700A2929356C6
:105A88000701969663E0D702639FD700C167FD17A9
:105A98007D8F4207B3F3F3003313B3001E9781459C
:105AA8006374E3007D15814512448244210182809C
:105AB8008145014582808280732540F181426303DC
:105AC800550019A817810000130141EE85629382E1
:105AD80002801691EF00D03C09A073005010F5BF6A
:105AE8000000000023AA150280DDC4DD23A82502DA
:105AF800ACC9032105030322850583204503005D06
:105B0800445D828000008280B727032003A70794A2
:105B180089473347F702814793160701C1823687C1
:105B28006366D500B307D540C207C1831306401F7B
:105B3800198E1307401F6366A600AA9613970601DD
:105B48004183A1663703032037050320B7050320E7
:105B580037060320D58F130303559306401F1305FB
:105B6800055C93858551130686582310F30023108E
:105B7800F5002314F3002314F5002318D300231889
:105B8800D5002311D3002311D5002315F3002315C5
:105B9800F5002319F3002319F5002312F30023124B
:105BA800F5002316D3002316D500231AF300231A71
:105BB800F5002390E5002310E6002394E500231464
:105BC800E6002398D5002318D6002391D500231189
:105BD800D6002395E5002315E6002399E50023194F
:105BE800E6002392E5002312E6002396D50023164B
:105BF800D600239AE500231AE600231CF300231C91
:105C0800F5002310F3022310F5022314D302231402
:105C1800D502231DD300231DD5002311F302231120
:105C2800F5022315F3022315F502231EF300231EA4
:105C3800F5002312D3022312D5022316F3022316EA
:105C4800F502239CE500231CE6002390E5022310BF
:105C5800E6022394D5022314D602239DD500231DE2
:105C6800D6002391E5022311E6022395E5022315C8
:105C7800E602239EE500231EE6002392D5022312A6
:105C8800D6022396E5022316E6028280184185474C
:105C98009306401F2320F75018412322F75018413C
:105CA8002326075018412324D75018491441136755
:105CB800070223A0E656584914411367070223A296
:105CC800E656184D14411367070223A4E6561841F7
:105CD80091462320D7201841232AF7501C41130747
:105CE800201023A8E7501C41584123A4E7725C45C3
:105CF8001841A1072326F77218451C4123A2E77013
:105D08001C41584523A4E7701C4123A407541C4197
:105D180023A607541C4123A407521C4123A607525B
:105D28008280370503205111130585CB06C4EF5037
:105D3800505037050320130585CFEF50904F370596
:105D48000320130505D3EF50D04E37050320130564
:105D580085D5EF50104E37050320130505DAEF50AF
:105D6800504D37050320130545DDEF50904C37059E
:105D78000320130545E2EF50D04B370503201305E8
:105D8800C5E3EF50104B37050320130505E8EF5026
:105D9800504AA240370503201305C5EA31016F5068
:105DA8005049B7A70C5003A7071401CF23A0071425
:105DB80037270C5085462324D7503707020023A4E1
:105DC800E7308280411122C4B726032037240320FC
:105DD80006C626C2938746931307C492DC435843EA
:105DE800938646931304C49263F6E70437A70C50CE
:105DF8002326F75488421840B727032083A707941F
:105E0800B72403206316A70003A74492630BF70087
:105E18003EC0DD39824723A2F492B7270320938638
:105E280047939C421CC0DC425CC0B240224492446E
:105E380041018280E370F7FC37A70C502324F75404
:105E480045BF511106C422C226C0372503201305B9
:105E58008598EF4050387350007E37840D501304F6
:105E68000420916404C4B727032083A5C79337256A
:105E780003202146910513054593EF60802B993740
:105E880044C0A2401244824431018280B2862E86E8
:105E9800AA8537250320130505966F40D01C3111BC
:105EA80006C822C60965130505718145EF50C0393A
:105EB80037040320EF0020731305E5F9D14763EC9D
:105EC800A708930784EF0A053E951C41828702C004
:105ED800B727032083A78792B307F040814501467F
:105EE8000A853EC26537F9B702C0B727032083A7E2
:105EF8008792EDB785473EC0E1BF85473EC0F5B7FD
:105F08003707032083278731E356F0FAFD17232C40
:105F1800F730371703201307077D8A07BA978C4392
:105F280037050320B7270320130505EE23A4B792EE
:105F3800EF50B02D41B737070320832787319D469F
:105F4800E3CAF6F68507E1B789473EC0F95779B73E
:105F580089473EC061B7F133B1BF3705032013014C
:105F6800C1FB1305C5F486C022DE26DCEF50702C79
:105F78004D3B592D4145EF00B004B7870D5093872D
:105F880007207D57D8CB37A40C50D8C393070450AB
:105F9800114798CB0D4798C71307803EB8C30967C8
:105FA80013070771B8C7F8C7232004149307042000
:105FB800314798C3930704304167D8C31305A00C31
:105FC800EF001000130500198136B70503209384EC
:105FD80005B87146938505B80A85EF6080150A856E
:105FE80075319385C40171466808EF6080146808AC
:105FF8007139B707008037250D502328F508B735C4
:106008000D5023A8F508130704183CC337260C5075
:1060180085462322D65085072324F50823A4F508AE
:106028003CC77CC789472322F65014C029458145BF
:10603800EF508021372403207D56FD566C08130548
:106048000496EF40700CF2478DEBB72703201387B7
:106058004793104382551307401F938747932E9603
:106068006374C7001306401F3705032090C3130548
:1060780085F6EF509019B933C1B705476397E70222
:10608800B72703201387479350438255096713079F
:1060980007712E96938747936373C7003A8637052F
:1060A8000320D0C3130545F9E9B70947E396E7F894
:1060B80037270320832607948257B69763D30700B0
:1060C800814737050320BE85130505FC2320F79477
:1060D800EF50B0134DB78E052E9503552500058159
:1060E8008280511106C422C226C02A84AE84E537B4
:1060F800EFF00FDFFD473385A740131725002297E0
:10610800032307019397340093854700939604016E
:106118009907A295A297C182631203020546331517
:10612800A6005044498E50C404CB2390D500239038
:10613800D700A240124482443101828013173300F1
:1061480011072297035607002390C5000E062390D7
:10615800670032942313D4002310D700D9BF31111C
:10616800711622C6938775003384C500E19B619838
:1061780006C826C41D8C135734001CC198C73A851D
:1061880023A607003AC23EC0EFF08FD5824793049A
:10619800400213060002898C098E0A068145138580
:1061A80007018A04EF50B07C9D0482478D80124716
:1061B8009396140093E616002391D7003306974070
:1061C8009396340023900700BE96931516002391EA
:1061D800B600239096003E9413153700231104004F
:1061E8002310C4003E9503572500A68513671700A2
:1061F8002311E5003244C240A2443E855101D5B581
:1062080001458280B727032083A74794828701111D
:1062180002C289472302F100B79702202E8693878E
:10622800C720AA850A8506CE02C002C602C83EC497
:10623800EF507016F240056182801301C1FD2EC82F
:106248000C0806C632CA36CC3ACE3ED02EC0C1376C
:10625800B240130141028280B727032023A2A794EA
:106268008280211122C806CA26C62A842EC032C4BA
:1062780036C2EF5060012320A20012460245A24513
:10628800029403250200EF500004828082801C459E
:106298009C4F91C38287828041119307450222C493
:1062A80026C206C6AA842E843EC0EF40C07A29EDD5
:1062B800AC407D576387E50463D3050081452947D2
:1062C8003396E502B385E50213854402EF40407535
:1062D800634405027377043083D5E403905C9386A6
:1062E800150063E3C600814603D6C403218B6310FF
:1062F800D602732007301155B2402244924441011E
:106308008280FD557D56C9B78145014675BFD05875
:106318002E9623008600239FD402732007308840DE
:106328001C45DC4B91C382970145F9B7411122C442
:1063380026C206C6AA842E841C45DC5F91C38297B8
:106348009C44DC5781C72685829705CD9C449C4B8D
:106358009DE38356E401184C0346310093871600E9
:1063680063F0E7040357C401631EF7029305E007CF
:1063780022851D37E1BF05469305310026858297A2
:1063880069F99C44DC4F95EB8357C4030357E40336
:10639800631DF7022244B240268592444101C5BDDF
:1063A8008147C9B7584836972300C700231FF40010
:1063B80013054400EF40206251BF2685829769F596
:1063C800B24022449244410182804C5813871700FE
:1063D800231EE402BE959C44DC4781C705462685FA
:1063E80082970357C4031C5C6364F700231E0402EE
:1063F800130544022244B240924441016F40A05D1B
:10640800111122CA26C806CCB287104D13074500C1
:106418003AC02A84AE868144631A060E04519DEF61
:106428003E859DA0130580FAA1A815E10343F1005C
:106438007D179385160023806600850775D3AE8681
:106448006380C4021386F4FFE1DCB28419A0E39BE5
:10645800C4FE7D56630FC5023E86BA873E87B28763
:10646800084036C43AC2104510424DDE9305F1008B
:106478003EC002967D5682471247A246E357C5FAA8
:10648800C5F32322A2007D55E2405244C244710163
:1064980082803EC436C23AC029458145EF40D05A71
:1064A80002479246A2474DBF18507D566304C7065F
:1064B800635307000147A9453316B702B305B7026E
:1064C8003EC436C20245EF40A055634805047376C2
:1064D80004300355C4014C48924613071500AA9589
:1064E8004207084C4183231EE40083C50500A247E8
:1064F8006363A7000147231EE40013778600732017
:106508000730338796002300B7008504E39EF4F82C
:1065180026859DBFFD557D5665B7FDF83307A0401C
:106528002322E20095B7B1C12A86FD570CC2232A5F
:106538000600232C0600232E06001CD2232A06025E
:10654800232C0602232E06023CC29C452E8585C3B9
:10655800BC4391CF5111B795022006C493854533AA
:106568008297A240014531018280355582800145DC
:106578008280411122C426C206C62A84B2840841F8
:106588001C45DC5381C72EC0829782454CC804CC79
:1065980081CC7D56814513054400EF4040420840B8
:1065A8001C459C5391C38297B240224492440145B2
:1065B80041018280411122C426C206C62A842EC007
:1065C8000841B284E931824504DC4CD87D56938574
:1065D800F4FF13054402EF40803EB2402244924447
:1065E8000145410182804111370503200546930585
:1065F80031001305856106C621356344050003454E
:106608003100B24041018280511106C422C226C025
:10661800B7F402201385C420EF303071355439C1E6
:10662800B70703209385C42013858761ED3D2A842D
:1066380015E99384C420984438431DCBB707032039
:10664800B705032041469385855F138587619D378C
:10665800B7050320B7070320414693858560138556
:106668008761013FA2402285124482443101828021
:106678001304A0F7C5BF511106C4EF30906D511136
:1066880006C4AA85F3272034F32730340145EF30B8
:10669800506C511106C4F327203481450545E13F6C
:1066A800511106C4EF408003EF40400E130606FC6C
:1066B800419A5CD6824754DA18DA1CD689679387E0
:1066C80007885CC2B79702209387A7261CDEB78786
:1066D8000220232606009387076810D95CD928C9A9
:1066E8008280411126C21307000093048000BA94E7
:1066F80022C433849540B70503202AC0130600003E
:10670800938585B6228506C6EF50B0221307000090
:106718003305E400130680008145EF505025824779
:106728002685A0CFB2402244924441018280B70717
:10673800032083A7C731511106C48297A24001459F
:1067480031018280511106C4DD37A2400145310173
:106758008280B707032023AEA730B717032093879B
:10676800477F03C74700136727002382E70082801B
:10677800B72503209385F599E19937060420370555
:10678800032051111305C5650D8E06C4C93AA240F0
:10679800014531018280511106C4EF10C042A24068
:1067A800014531018280511106C4CD340F00F00F2C
:1067B800A14773A0073073005010A24031018280B6
:1067C800B71700F00A053E951C4193E707101CC156
:1067D800828001458280AA8537F502209307C5206B
:1067E8009C471305C520DC438287B7270320511136
:1067F80083A7879426C09374F50F22C206C42A84FF
:106808002685829785476309F500A9476314F40034
:106818003545D1372685C137A240228512448244A6
:1068280031018280511106C422C237F502201305B6
:10683800C520EF30904FB55711C937940220130582
:10684800247F013F1305247F013C8147A240124465
:106858003E85310182805C410145DC43DC479CC1B7
:1068680082805C416D8E0145D8439347F6FFED8FDA
:1068780050C31CC782805C410145DC43CCC3828085
:106888005C410145DC438CC782805C410145D843AB
:106898001C43AD8FB3F6F50093C7F7FFFD8D54C3C6
:1068A8000CC782801C49D84321C3631CB702984196
:1068B8009447D8C36393D50098C723A0050019C689
:1068C800D84398C19847CCC311E38CC7014582804F
:1068D8006399E500984198C29847E390E5FE94C70C
:1068E800E9BFBA8618436DF761FE29558280130106
:1068F80081FD06D222D026CE2E874C419377F70110
:1069080003C4C50016045D8C9C49EDC713850501B9
:10691800B70720002AC06317F600A285EF204014AD
:106928008147D1A002C6B7074000631AF6083705A9
:10693800000295476393A600914702C802CC8C4594
:106948003EC43C00B3D5E5003ECA8589A9E9B7072E
:1069580040016316F6049377F401935654000947EF
:1069680093870702636BD708370703208A06130744
:10697800C7FE369718438A07BA979C43858B85E3E9
:10698800024513067100A285EF109064B704AD0BA1
:10699800938744006301F504930771003EC60245DE
:1069A8001008A285EF1050183707AD0BA957631CC4
:1069B800E50202450546A285EF10707895B73705C0
:1069C80000068D47E38BA6F6370500028547E39658
:1069D800A6F689479DB7024593057100EF105074DC
:1069E800D157E30B95FA92500254F2443E851301B5
:1069F800810282809307A0F7FDB78A079C43029023
:106A08001301C1FC26D406D822D64041AE8613F71E
:106A1800F6018345C400B2849605D98D1377060123
:106A28000D4601E713D65400058A32C813F76430BF
:106A380013056010630DA70A6368E5021945630A28
:106A4800A70A636DE50015CF0945630CA702295510
:106A5800C2503254A254130141038280130500101E
:106A6800E317A7FE054731A8130520206305A708EB
:106A7800130500306303A70813050020E319A7FCDA
:106A8800114737050800658D3DC9032344000545B6
:106A9800B316D5002322D3001448B5EE93F6F501BA
:106AA80013D55500894563E7A510B70503200A05E6
:106AB8009385C5FEAA958C418A0693D71401B6958D
:106AC80093D6040193C61600858A03A50508860691
:106AD800858BD58FFD769386060FE98ED58F0A06AE
:106AE800D18F22075D8F23A0E508014595B725477B
:106AF80049BF214779B7194769B7154759B73705C6
:106B08000400658D51D9032344000545B316D5000B
:106B18002324D30051B741041306F10022853AC457
:106B28002EC2EF10F04AB70603002AC0E58E924540
:106B3800224799EE2285EF10905C0247B707AD0B0C
:106B4800E315F7FA8345F1002285EF10905B71BFDA
:106B58005408700822853AC436D02EC202CA02CC24
:106B680002CE02D2EF10407CB706AD0B9245224709
:106B7800E31FD5ECB7060200E58E85C693D704015E
:106B880093C71700858B3ED0C2478146700822857F
:106B98003ACE3ED2EF10D024B707AD0BE30FF5F88D
:106BA8007DB51C087008228502D002D23ECEEF10B7
:106BB800A077DDB7938606028A069C42029051119F
:106BC80006C422C240411C489DC741042285EF10DB
:106BD800305115E181452285EF10F0443707AD0BA0
:106BE800ED57631BE500B7A5022001469385A5C0B4
:106BF8002285EF10903B8147A24012443E85310127
:106C08008280411106C622C426C2935755000947FF
:106C1800638BE70005476382E704A9C7B2402244B3
:106C280092444101828037F402201304841F1C48D7
:106C3800CC43EDD584418547B397A700E5D190456E
:106C48007D8E11C6D84122853EC0029782470147F2
:106C580091C09840A685BA84D5B737F402201304AA
:106C6800441EF1B737F402201304041DC9B75C4170
:106C78001CC28346850058418E06369763E4E700B8
:106C88007955828003C757006304B700A107CDB7C1
:106C980001458280B707032031119387470922C82D
:106CA80026C62EC201433EC489420D44924763174B
:106CB800F30001454244B244510182801C41A14580
:106CC80013D797003D8B93F6F70763E5E50EA245CA
:106CD8000A072E9718439305F0073AC013D7070100
:106CE800639CB60063155704FD572328F660050317
:106CF8001373F30F11055DBF631557022328D66080
:106D080093D55600638D850A370703208A05130734
:106D180087082E970C4305473317F700D8C18543DA
:106D28001DA863E4E20241E72322D660D1BF63E7EE
:106D3800E200FD5735CB2326F66055BF8D47631D0E
:106D4800F706FD572324F6605DB78D456316B70631
:106D58002324D660814318418965B374B7009E85A2
:106D680099C0854581439582FD8B638D8604B70460
:106D780003208A0693848408B694944082448A0740
:106D8800B697158383A60708A204318B458FB7F4FD
:106D9800FCFF9384040FE58E558F336777008605D3
:106DA800D98D23A0B708A1B72322F66089B7232677
:106DB800D6604DB72955FDBD1305A0F7E5BD2322C3
:106DC80000000290938707028A079C43DDBF1C4995
:106DD8000145D8430CC3DC43D0C38280AA879C4BAF
:106DE80048419C47898B85C75111110506C4EF207E
:106DF80070612A87B707AD0B01456307F700AD0738
:106E080041556303F7006D55A240310182804D550D
:106E18008280511122C206C41C492A84C843130522
:106E28008504EF40702B4840014685451105EF2049
:106E3800706EB707AD0B6317F5000145A240124409
:106E4800310182804955DDBF511106C44841814551
:106E58001105EF20D02EB707AD0B6316F5000145DD
:106E6800A240310182804955E5BF4859F1BF41111F
:106E780006C622C426C240413448130744003AC01B
:106E8800918A8DC21C459C4B99E70145B24022442A
:106E980092444101828005468297133515003305D7
:106EA800A040EDB71C494155DC43EDF3AE84130512
:106EB80044008145EF20707BAA86B707AD0B7D554E
:106EC800E396F6FC0C540245054683C7050023806B
:106ED800F400EF20305355BF411126C206C622C424
:106EE80000494841B68481460323850311051AC029
:106EF800EF20B007B707AD0B0243630DF5002A87F3
:106F0800AD076D556313F7004155B24022449244D2
:106F18004101828085476315F300FD576394F400AF
:106F28000145E5B74040A686410463D30400814685
:106F38001385360693D7F641B335D50013064006B8
:106F48008146BE95EFE05F812E86AA85814601477E
:106F58002285EF40F00FE9B71C49DC4389E7484137
:106F680011056F20107C03A5870823A407088280D9
:106F7800011122CC06CE26CA5C4132872E831386A5
:106F8800470032C2905FAC4B832205017D16133651
:106F9800160013F5450083A442000A06014401E5E2
:106FA800333490000604518C898913641400130546
:106FB800A0F7D1E57D566389C60819462386C4081B
:106FC800114601456356D602154633C5C602130657
:106FD800400681463AC81AC616C43EC0130535068F
:106FE8009355F541EFE04FF742473243A2428247BB
:106FF80023A0A40823A2B408DC43C14623A2D730A7
:107008000F0050059387820023A46400D8C43EC0B3
:1070180002458945EF4070141245A2853704AD0B2F
:10702800EF201023AA840145638B84000245F5559F
:107038002D04EF40F0136D55639384004155F240E1
:107048006244D244056182800146814623A0C40877
:1070580023A2D40845BF211122C82A841305401051
:1070680026C606CAEFF0CFF55C4030008145F847E8
:1070780004483EC03A853AC2DD3E63460506A2474B
:10708800124783C54700104388432931634D0504DF
:1070980082478C43A1E5C84021ED8247014693858C
:1070A800C7001C48DC4389C737A6022013060624FC
:1070B800824713854700EF208051B707AD0B631453
:1070C800F5085C40B84B118B39EB1848584309E771
:1070D8000247384B098B21CF014531A08840EF008A
:1070E8003006E35A05FAD2404244B2446101828034
:1070F800B7A5022001469385251C13058504EF409A
:107108004073DC40E0DFC840B7A502200146938504
:1071180025E74105EF40E071DC40E0C3BDBF824791
:10712800BC4B898BD5FB2285EF00A07975B78C57AE
:107138001384470005462285EF20D02C81452285FF
:10714800EF20101151BFB70753F4F1173E959D4733
:10715800E3E4A7F8B70703209387C7B6AA97038580
:10716800070051B7411126C206C622C44041B704E0
:10717800AD0BA301B1001104AD0489460546930582
:1071880031002285EF20605E631A9500EF30900D84
:107198006DD581452945EF40200BC5B7B240224443
:1071A80092444101828083250508032645088146CB
:1071B8000147130585046F40A069411106C622C422
:1071C80026C25C59C043984B1104228544433AC0F7
:1071D800EF205057024711C991472386F4082244EB
:1071E800B2409244484341017DBF83C7C408FD179C
:1071F80093F7F70F2386F408FDF322852244B24063
:1072080092440146814541016F20D030511106C496
:1072180022C24041084921058545EF40007405898F
:1072280001E9130544001244A24031016F201049BE
:10723800A2401244310182801301C1FD06D022CE42
:1072480026CC18419D46804963EEE60CB70603201C
:107258000A079386860B36971843AA87AE84028757
:1072680058451C4502C8058B3AC258413EC6DC4108
:1072780002CA3AC4985F85476313F7064840410538
:10728800EF408065A9A8104539C658404841832673
:107298008708A9CE19473AC213F7160019EB93F5D8
:1072A8002600094799E593F54600114799E113F738
:1072B80086003AC4D8402AC632CA384B118B01E737
:1072C80058402324070858404C002685144350434F
:1072D8003EC082968247DC4311473AC23EC45C40B6
:1072E8004C0026859843D04302972DA809473AC2F7
:1072F8002AC432C802C6C1BFD841C1465C405843FF
:107308002324D7300F00500515472386E708484047
:1073180072448250E2441301410271B558405C4501
:107328002324F70882507244E24413014102828008
:107338005C40C8418C4791CD23A40700D04723A6C1
:10734800070072448250E2441105130141026F2084
:10735800700B0D4702C402C602C802CA3AC203A78C
:10736800070883A747085D8F3DDB5C41414723A29F
:10737800E7300F005005A5B7954702C402C602C8FA
:1073880002CA3EC2F55513058400EF40605E4840CE
:1073980013058504F5B5F95513058400EF40405DE4
:1073A800058949D1724482502685E244130141027D
:1073B800B1AB511122C206C41C4501449DC7834785
:1073C800C5000347D50014418507B387E70280420B
:1073D80005073E9483C786000504FD17F98FA306A9
:1073E800F50085452105EF40C055A240228512448D
:1073F800310182802E878347F7FFB285B386C700A5
:1074080093F6F60793F707F8D58FA30FF7FE110544
:107418006F40C05183C7F5FF93E707F8A38FF5FEC8
:1074280082805C41C9CB49CA31119307850022C6C5
:1074380026C406C82A84AE843EC00347C4008345D8
:10744800E4001C4005073307B7029C43BA978385BD
:1074580007000347F40063DD050283C5070093F5C1
:10746800F5076397E502238007001C40A307040083
:107478000347E40083C7870032C20507FD17F98F69
:107488002307F40002458545EF40404A124675B788
:1074980005073E9798C083C707000347F40093F792
:1074A800F707998F63F3C7003E86C2403244A2446F
:1074B800328551018280014632858280511122C273
:1074C80026C006C41C418346E5002A8498438347A6
:1074D800C500AE848507B387D7023E978347F5007A
:1074E800AE9793F7F70FA307F5008306070063DA53
:1074F80006028346070093F6F6076394D702230033
:1075080007001C41A30705000347E50083C7870060
:107518000507FD17F98F2307F50085452105EF407D
:10752800E040A68513054400EF40A0410844A2406E
:10753800124482443325A000310182801C4183C754
:107548008700A3060500231705001CC52322050094
:10755800814718418346870063E3D700828014433C
:107568000347C50005073307F702850793F7F70FA9
:10757800369723000700F1BF511122C226C02A8482
:10758800AE8431468145110506C4EF40503E04C023
:1075980003C78400DC402955B3D7E702FD1793F7EA
:1075A800F70F2306F400E207E18763C50700228589
:1075B80071370145A24012448244310182806F40F4
:1075C800203B85456F408036511122C206C426C033
:1075D8001C492A84844313858403EF4000381385AB
:1075E8008400C5375C40228512449C43A2408244F3
:1075F8009C4F31018287511122C22A841385C5000C
:1076080026C006C4AE84753303C684010DC55C402C
:10761800AA859C43DC4BD8475C40228512449C4396
:10762800A2408244D44FB7E7F50593870710B3D635
:10763800D70231010287A2401244824441553101E8
:107648008280211106CA22C826C658412AC09946F6
:107658000443984163E9E60AB70603200A079386BC
:10766800061D3697184332840287BD5513058603D5
:10767800B937185C05831440058BD1C649C7130573
:107688008400813742449C4C0245D240B244610197
:107698008287D045CC411305C400A93B185CE1BFE3
:1076A8009307C6003E853EC2293303468401AA8556
:1076B80019CDDC482AC402459C4B8297A2456354E5
:1076C800050412454244D240B2446101A1B31305F6
:1076D800C4024244D240B2446101E5B5CC4113052D
:1076E800C600CDB7185E098379B7185E218B0DC324
:1076F800184A01E71305C60091350245A285E53D04
:1077080019E123260402D2404244B2446101828036
:107718004244D240B2441305C60161016F30A02B28
:10772800011122CC06CE26CA184954412A840443A2
:107738009C422EC4D4583EC29387840332C836C6AE
:107748003EC0C1453E85EF404021418929E142467E
:10775800B24663F3C6003686A245885832C6EF4063
:10776800501D924732468C58D44B228532C203A30F
:107778004600FD5602936349050012463285F240E1
:107788006244D244056182800245BD550D3D0145E4
:10779800FDB7011126CA06CE22CC18492EC2AA84EA
:1077A800004358410C081C433EC49307C4003E855F
:1077B8003EC085392AC059C12A86C2451245EF40C4
:1077C800501782451305C400D539585419E70245A6
:1077D800F2406244D2440561828075D91305C40021
:1077E800C93E034684012AC232C685451305C40230
:1077F800EF402015A24732469245D84B268532C421
:10780800184B0297E35505FC4D572246E312E5FC59
:1078180023260402D8401843584B0323C700D840F6
:10782800924526851843544F37E7F5051307071087
:10783800B356D7020293E35C05F859BF014549BF27
:10784800894559B31C49F55588431305850385BBFC
:107858001C499C43885F4989791513351500828036
:1078680085459DB31C49F95588431305850381BB9C
:10787800C5B71C499C43885F058901C5884B3325DA
:10788800A0008280914589B31C49ED5588431305B2
:10789800850335B3511122C206C42A84553F09E92C
:1078A8002285C13F3335A000A240124431018280B5
:1078B8000545DDBF054582801C499C438CC3D0C368
:1078C8008280411122C406C626C21849B7A50220E3
:1078D8009385A564044358412AC026861843584B0B
:1078E800184302972A84634D05008247A6853E8582
:1078F80019332A8411E5A14513858403EF40E00577
:10790800B24022852244924441018280411122C41E
:1079180006C626C21C492A848443938784003EC035
:107928009840CC402285029702458545EF4060018A
:107938000547E347A7FEB2402244924441018280B2
:10794800511122C226C006C49C412A84AE841CD987
:10795800DC415CD9814505467105EF3040061305C9
:10796800C4001244A240938584008244310129B1A5
:10797800211122C8130471006198228506CAEF10EC
:10798800E01B08404C40D2404244610182804111D2
:1079980022C426C206C63284AE84D93F63E2850675
:1079A8002A876314B400636D9504B704032003A405
:1079B800843083A7C4308146330587403337A70016
:1079C8009D8D998D130640063EC0EFD0FFD89306D3
:1079D80040063387A6028247B240B385B6023A947E
:1079E8003337E40023A484302244B3B6A602B69504
:1079F800BE952E9723A6E430924441016F30503F44
:107A0800B24022449244410182805111014506C48A
:107A180022C2EF10C0173707AD0BFD576318E504F6
:107A28002A843725032013050582EF106015D157E6
:107A3800631E850237270E508327877293E7170046
:107A48002324F7720F005005B706004083270772FA
:107A58000F00A00A832747720F00A00AF58FFDF7D1
:107A6800B7070320614723A8E7328147A2401244A1
:107A78003E8531018280511106C422C273740430DC
:107A8800C53D218873200430A24012443101828010
:107A9800511106C4F13D37070320AA870325873013
:107AA8000327C730130640063385A740B3B7A7009E
:107AB800998D81469D8DEFD03FCAA24031018280C9
:107AC800211122C806CA26C6FD573704008063065E
:107AD800F5002A846343A0000544593DB7070320F5
:107AE80003A7873083A7C73093063006B382E640E2
:107AF800AA842E83B3B656009D8D33859200B33287
:107B08005500958D13064006814696957D143AC416
:107B18003EC21AC0EFD05FC49356F4412A9433355D
:107B2800A400B6952E959306400633868602224712
:107B380002439247B38767403385A602B3B68602ED
:107B4800AA96330597403337A700998F3295BE968A
:107B58003337C5003697B367E5002A84BA8499E3BA
:107B6800054481449307100363E89700639AF4007F
:107B78009307C0F963F687001304C0F99304100350
:107B88003723032011EF634D0500A2854244D240FC
:107B9800B244814605461305838161016F10801345
:107BA800C13B2295333485003386B4002296424483
:107BB800D240B24437230320AA8585461305838122
:107BC80061016F108007B717125083A747800547D8
:107BD800638CE7000D476398E700B72703203797C2
:107BE800D00323A6E7948280B72703203727A1076D
:107BF800CDBF02856F20B010311126C406C822C639
:107C0800AA84AE878C403EC295CD2E852EC07D4479
:107C1800EFD01FAD098C1374F40F05468245331657
:107C280086001346F6FF6D8E2685EF30904E9247FC
:107C380071D9238087003705AD0BC2403244A24476
:107C4800510182803705AD0B0905C5BF1C41B3D76B
:107C5800B700858B9DE7511126C0854422C206C412
:107C68002A84B394B4000C4033E695002285EF30A3
:107C7800504A75D9A240124482443705AD0B3101F0
:107C880082803705AD0B11058280B7070320135793
:107C980055009387871FBA9783C707007D893E954C
:107CA8001375F50F8280411122C42A842E8526C2BD
:107CB80006C62EC0B284D13F930785008607A297D7
:107CC80083D7070093F6071091CA998393F787071C
:107CD800A2979443D0430245A68582961C4489CB3B
:107CE800504422440245B240A6859244410182870D
:107CF800B240224492444101828041113707032057
:107D08002EC01307C7B75000AA879305C50083463E
:107D1800070013D5360041050A95034505FF9D8ADE
:107D28003355D500058909E9910705071106E39040
:107D3800B7FE0145410182800F00A00AB7A6105086
:107D480036C2B7860D509386062036C4B70605504E
:107D58009386064036C6144203A3060223A0670092
:107D680023A066020F00F00F9443DDDEE1B7511146
:107D780022C22A842E8506C4093F8347440013067D
:107D8800200337270320B387C70293064782AA97A1
:107D9800A1078607BE9683D7060013F607102DCADB
:107DA80079761306F60F93D59700F18F2390F60096
:107DB800034644009307400613074782B307F602B9
:107DC800BD89014513030002BA9783D6070193F2D0
:107DD800061063860200A582BD8A638BD50205055D
:107DE8008907E31465FE930640063306D602939787
:107DF8003500B297BA9723A0070003454400124400
:107E0800A2403305D5023101130585053A953DBDDC
:107E1800A240124431018280397126DA06DE22DC62
:107E280003274530B70702002EC01377F70FAA843F
:107E38005D8FAC490F00A00A014401460545639EC9
:107E4800C50A83A7441489CB9387441423A0070049
:107E58009C43B70702005D8C0F005005B70702006E
:107E6800E18FC9C78247281002D4EC4F02D602D846
:107E78006935B70703209387C7B73ECA3C103EC48D
:107E880002C2524792478246BA9703C707009357E0
:107E98003700B69783C7C7051D8BB3D7E700858B17
:107EA800639A0718924785073EC2A247124791076F
:107EB8003EC48D47E317F7FC8247B04B0F00A00A7A
:107EC8008146C545631BD61C83A7441491C7938775
:107ED800441423A007009C430F0050058247281034
:107EE800EC4F213D41FD8177FD177D8C6318041C03
:107EF800F2506254D254216182809377F60F8A0738
:107F0800938607108983B317F5003373F700630B63
:107F18000300A69603A306006306030023A0060039
:107F280094425D8C050621BFEFD04FFF9246B707FC
:107F380003209387C7B7B69783C507002AC8960555
:107F4800C98D2E852EC69133024793078500860773
:107F5800BA97424783D60700A247135637001D8BAE
:107F68003E968547B397E7000347060093C7F7FF98
:107F7800F98F2300F6000F00F00FB245894393D71D
:107F880055003EC813F7F50163EAF31613D526002A
:107F9800B700032093D65500939226009387C01EFE
:107FA80096979443130307020A0336938327030023
:107FB80013767500C1838D8B0F00A00A9380C01EB5
:107FC800118906C62DCD02451AD23ED036CE3ACCFE
:107FD800D9390F00F00F1253032603000F00A00A2F
:107FE800825741820D8A6247F246639AC7020F00A0
:107FF800A00A13162700B296938606088C42370605
:10800800FDFF7D16F18D8CC20F00F00F0F00A00A46
:108018008C42C2076D8ED18F9CC20F00F00FC247F1
:10802800B2468A07B69794438547B397E7009CD230
:108038000F005005A2478843E31805EEA5B58D4605
:108048006383770089460F00A00A3245131327007F
:10805800C206AA9203A50200B702FDFFFD121A95F7
:108068000323050833735300B3E666002320D508BD
:108078000F00F00F0D456308A6008946639AD700E4
:108088008547E31EF6F802453ACC3139624741BFCD
:10809800E397A7F8E315D6F8FDB793F7F60F8A0725
:1080A8001387071089836399B700B387E40098435F
:1080B80001C723A007009C43850629B52285EFD078
:1080C800EFE58547B397A70093C7F7FF7D8C0F00AF
:1080D800F00F0A052695832505510F00A00A0F0009
:1080E800F00F032605510F00A00A02454182918135
:1080F8000D8A93F5F51FEFF01FBBCDBB13070702E1
:108108000A071C430290511122C22A842E8506C4F4
:10811800EFF0BFB7130720033304E402B7270320A7
:1081280093874782A2402A9421040604A29703D584
:1081380007001244358131018280511122C22A84FC
:108148002E8506C4EFF07FB4130720033304E4023E
:10815800B727032093874782A2402A942104060464
:10816800A29703D507001244058105893101828051
:10817800511122C22A842E8506C4EFF01FB11307BD
:1081880020033304E402B727032093874782A240E1
:108198002A9421040604A29703D5070012441581E6
:1081A800058931018280411122C426C206C683474F
:1081B8004500AA842E843E853EC05D3F1DCD024504
:1081C800A285A53F1DE90245A285353F9840854710
:1081D800B397A7002324F7300F0050059C400A05E9
:1081E800AA9703A70751719B23A8E7500F005005D2
:1081F800B24022449244410182800F00A00A0947FC
:108208009377F401158063668702370703200A0411
:108218001307C71E229718438A07B706FDFFBA97A8
:1082280003A70708FD16758F23A0E7080F00F00FB6
:10823800C1B7938707028A079C430290111122CA8B
:108248002A842E8526C806CCAE84EFF01FA4834767
:1082580044001306200337270320B387C702930679
:108268004782130747822AC23AC4AA97A1078607FA
:10827800B69783D70700858BD9CFA6852285253762
:1082880083474400A6853E853EC0DD3519CD1C4098
:108298000245A6853EC6853DB2470A05AA9723A88A
:1082A800075023A807500F005005A6852285EFF038
:1082B8001FAC83474400130720038946B387E702AE
:1082C8001247BA972247A1078607BA972390070053
:1082D80093D7540013F7F40163E3F604B7060320B9
:1082E8009386C61E8A07B6979C430A07B7F6FCFF13
:1082F8003E97832707089386060FF58F93E7270095
:108308002320F7080F0050053705AD0BE240524413
:10831800C244710182803705AD0B1105C5BF130733
:1083280007020A071C4302901301C1FD26CC2AC488
:10833800B2842E8522CE2EC206D0EFF01F95804043
:108348002AC09245A24755C403C747003EC62EC45B
:108358003A853AC2DD33A245B24719CD1245093DE7
:10836800A245B24711C93705AD0B110582507244B9
:10837800E24413014102828013D65500894613F75F
:10838800F50163EFC61CB70603200A069386C61ECE
:10839800B29694420A07BA9603A606081840419A6C
:1083A8000A07518F23A0E6080F00500503C74700AE
:1083B8001306200302453307C702B7260320938616
:1083C80046822A97210706073697035507007599AD
:1083D8002310A70003C747003307C7020246329796
:1083E80021070607BA9603D70600136717002390DC
:1083F800E600D84035C783224700004303C747003B
:1084080016C83EC63A852EC43AC2053B1247A24555
:10841800B247C24239C9E39802F403C747001306BA
:10842800200302453307C702B726032093864682F6
:108438000A042A97210706073697035507000D995E
:108448002310A70003C747003307C7020246329725
:1084580021070607BA9603D70600418F2390E60046
:10846800984461E33705AD0B11B7130320033307B5
:108478006702B7260320938346828246096513065E
:10848800F5FD3697210706071E9783560700F18EDC
:108498002310D700E38302F80D47E36687ECD84042
:1084A800584303460700984393122600169701E89D
:1084B80023280750232807500F005005B9BF8326EB
:1084C8000751F19A2328D7500F00500594434115BE
:1084D800969693860650984AB7E2FCFFBD0233771A
:1084E800570098CA83A2060113974500698F131590
:1084F8000401498F3367570098CA0F00500503C716
:108508004700824636063307670236972107060773
:10851800BA9303D70300518F136707022390E30030
:10852800EDBD004358433E853EC43AC2EFF03F8458
:1085380015D8A24713064006B724032003C54700F1
:1085480013874482938444823306C50232971043CA
:10855800631DC400584392466399E60001470DA87D
:10856800130707020A071C43029013074006330546
:10857800E502930571013EC4130585052695EFF0C4
:10858800AFE73707AD0BA247E312E5DE03477101FA
:1085980003C6470013054006931537003306A602A5
:1085A8002E96269600C283C64700B386A602B695C5
:1085B8009246A695D4C183C7470093062003B38784
:1085C800D7028246B697A1078607A6979316970003
:1085D80003D70700558F136707102390E70059B595
:1085E800111126C8AA842E8532C606CC22CA2EC0EE
:1085F80036C4EFF08FE932462AC269CA03C4440080
:1086080082452285EFF07FB3324619ED82452285F7
:10861800EFF01FB6324609C93705AD0B1105E24028
:108628005244C24471018280930520033304B4028A
:108638001247B726032093874682938646823A9448
:1086480021040604A29783D7070089839D8B89C7D5
:108658004C428547E382F5FC02478247894513551A
:108668005700FD8B63EEA512B70503200A05938515
:10867800C51EAA958C418A0703238600BE955C42D5
:1086880003A505080A0386071042B3E767007D7350
:108698001303030F33756500C98F2206D18F93E743
:1086A800170023A0F5080F00500583C744001306E0
:1086B80020031247B387C702BA97A1078607BE9659
:1086C80083D7060093E737002390F600A24781E797
:1086D8003705AD0BA9B7824503C54400EFF0FFA5E8
:1086E80005DDA24703C407009C4093122400969717
:1086F80023A8075023A807500F00500583C744003C
:10870800130320031247B387670237260320130693
:10871800468209659305F5FDBA97A1078607B297C2
:1087280083D60700ED8E2390D700A247CC43CDD146
:1087380094409C47B7E3ECFF96969386065083A235
:108748000601BD030247B3F27200C205B703030076
:10875800B3F57500D207B703100023A85600B3F786
:10876800770083A20601CD8F4115931547006D8DC3
:10877800C98FB3E757009CCA0F00500583C7440050
:1087880012473604B3876702BA97A10786073E9651
:1087980083570600C18F93E707022310F6000DBF29
:1087A800938707028A079C43029003474500930674
:1087B8004006B72703203307D702938747823E979F
:1087C8000CC7034745003307D702BA97D0C7828042
:1087D800411126C206C622C4034445002EC0B284F5
:1087E8002285EFF0FF9805CD0245EFF00FCA130779
:1087F80020033304E402B7270320938747822A948F
:1088080021040604A29783D707003705AD0BB5836B
:108818002380F400B240224492444101828037050B
:10882800AD0B1105C5BF211122C806CA26C683444F
:1088380045009307400637240320B387F402130347
:1088480044822AC43E93032703061AC23AC049E762
:10885800C107130444828145130600043305F4005C
:10886800EF30F010A24612430247944283250305D5
:1088780045456394E5049387461423A0070013D560
:10888800C6009C431375F51F36C0EFD07FF38246B0
:10889800B707020023A2F6300F00500593074006E1
:1088A800B384F40285473705AD0B26943CD03CCC05
:1088B800D2404244B244610182809377F70F8A071D
:1088C8001386071089836397A700B307D60023A0F0
:1088D80007009C43050771BF3705AD0B3105C9BFBC
:1088E8000347450093064006B72703203307D702FE
:1088F80093874782BA97A8533335A00082806FF0D8
:10890800FF93834745001307400637250320B387A5
:10891800E70213054582938747053E956FF00FB32D
:10892800834745001307400637250320B387E7022E
:1089380013054582938747053E956FF0EFAB3111DC
:1089480022C626C406C8834745002A84AE843E85CD
:1089580032C23EC0EFF0DF8131CD0245A685EFF08F
:10896800CFFD29E90245A685EFF0EFF918409316E7
:1089780025001386061032972320070018430F009E
:108988005005184036978326075193E6160023288A
:10899800D7500F005005924789CB18408547B397A9
:1089A800A7002322F7300F005005C2403244A244EA
:1089B800510182802685EFF04FAD824613072003D0
:1089C800B72703203384E6029387478213F7F4011D
:1089D800B7060320958091459386C61E13962400FA
:1089E8002A9421040604A29783D7070089839D8BC4
:1089F8006388B70495456380B7060F00A00A8947C6
:108A080063ED9704B387C6009C43DC470F00A00AB8
:108A1800B3D7E700858B89070F00A00AB296131613
:108A280027009842C2073297832607083706FDFFBA
:108A38007D16F18ED58F2320F7080F00F00FB5B7FC
:108A48008D470F00A00A8945E3FA95FC1307070232
:108A58000A071C4329A08947EDB78327C000029065
:108A68006FF06FF4B72503209385458237A50D5025
:108A78006FF08FBAB72503209385858837C51050C6
:108A88006FF08FB9311122C626C406C80347850086
:108A9800AA840144E14636853AC236C0EFC01FC8F1
:108AA8001247824605466317E50413072705120790
:108AB800B7270E50BA9723A607000F005005B146F6
:108AC8003304D4029840B72703209387C78E85467E
:108AD8003E9458C4D84018C803C78400230AE40049
:108AE800B396E6009847558F98C7C2403244A244CF
:108AF80051018280B317A60093C7F7FF0504FD8EC6
:108B08001374F40F49BF8547B397A70013F787017C
:108B180011CF372703201307C78E48431345F5FFA6
:108B280061897D8D01C93705AD0B82803705AD0B95
:108B3800210582803705AD0B1105828081470147E9
:108B48005CC118C1B7270E5083A70751898B8DC701
:108B5800F3770430B7250E503707004003A6057297
:108B680083A64572E3FCE6FE10C154C1A18B73A035
:108B780007303705AD0B82803705AD0B05058280C0
:108B8800AA85372503201305058F6FF0EF8651114D
:108B980022C23724032006C49307C48E9C43D1E71E
:108BA8001304C48E95470147E14613F61600329721
:108BB800FD171377F70F8582EDFB8946631BD706F0
:108BC8000D47230AE400B7260E5011472300E4029C
:108BD8008545938606101306000313D7270033979D
:108BE800E500618B11C73387D7002320070018439E
:108BF8009107E394C7FE0F0050051305200EEFD030
:108C08003FBC0F00500537270E508327877293E724
:108C180017002324F7720F00500585471CC037053D
:108C2800AD0BA2401244310182803705AD0B3105EE
:108C3800CDBF3705AD0B0505EDB7211122C826C6F6
:108C480006CAAA840345850036C02EC23284653D13
:108C58003707AD0BAA866319E5062AC426851D3594
:108C6800F375043003C78400924737260E50120765
:108C7800329732042320F7523180232287520F0083
:108C8800500513F7850073200730024783C7840017
:108C9800A2460DC31397270093050710B29523A08A
:108CA80005008C410F005005854509833397E50081
:108CB8002322E6309387270537270E509207BA9765
:108CC8000547D8C70F005005D2404244B244368504
:108CD80061018280211122C826C606CA2A87034557
:108CE800850036843AC2AE8432C0313DB707AD0B39
:108CF8001247AA866319F5062AC43A856133737642
:108D0800043012478604858083478700B7250E50B4
:108D18007E04938727059207458CAE9780C70F007E
:108D28005005218A73200630834787000247A246F0
:108D38000DC313972700130607102E96232006004D
:108D480010420F005005054609833317E60023A299
:108D5800E5309387270537270E509207BA970547BE
:108D6800D8C70F005005D2404244B244368561014D
:108D78008280311126C4B724032006C822C69387EF
:108D8800C48EC0439C471344F4FF61887D8C0F0058
:108D9800A00A814622879384C48E51EF0F005005A4
:108DA8000F00F00FB7270E5003A70730758F0F007D
:108DB800A00A268413838401034544018547B39799
:108DC800A700F98F95CB8323C400638703023AC0B9
:108DD8000F00F00FB7270E5093164500B69703A65D
:108DE800475283A507520F00A00A144882930247EE
:108DF800B7270320138347903104E31F83FA0F003A
:108E0800A00AB7270E501387871618430F00A00A29
:108E180025CB0F00F00F83A707300F00A00A3707F4
:108E28000004F98FB1CF9C58A1CF3244C858C24032
:108E3800A244510182873A8536C23AC0EFC01F8EDC
:108E4800931725001383071005468983B317F60087
:108E5800B372F40002479246B7250E50638C0200A5
:108E68002E93832203006387020023200300032339
:108E78000300DD8E3315A6001345F5FF698F31BF5A
:108E8800C2403244A24451018280AA870F00A00A3E
:108E9800032705130F00A00A01EF014599E90F0008
:108EA800A00A03A587160F00A00A3335A000828008
:108EB8000545828099C5232EB5722320C5740F00FD
:108EC80050052324051693070510B8570F005005C1
:108ED80023280512985B0F00500523260516FC571A
:108EE8000F00500521479307055098C30F00500500
:108EF80091C685672322F5300F00500585473CC988
:108F08000F0050058280111106CC2EC05C410C4127
:108F180002C202C402C60A858297E24071018280B9
:108F2800111106CC85473EC02EC25C410C4102C6D9
:108F380032C40A858297E24071018280F377043057
:108F48000F00A00A032705130F00A00A11CF0F0076
:108F5800F00F032745300F00A00A8566758F09E7D3
:108F6800232005500F005005A18B73A00730828085
:108F7800511106C41841DC5583A2050303A3450318
:108F8800905D9455B7A504506313B7008D82B3E77D
:108F98005700B3E767002322D752D18F2326F7560D
:108FA8000F00500508412326051493070510F847BC
:108FB80023240516B857232A0510D84B2322051257
:108FC800D853232805129C5B0F0050053181137577
:108FD800F51FEFD0EFFE0F005005A240310182804F
:108FE8006F201019111122CA26C806CC2328051093
:108FF80013070510184B2E84B2840F0050059306F2
:10900800052098421377F7FD98C20F0050053707DF
:109018001800930705301307072298C70F0050055B
:10902800313FB71500FF2324040023280400FD1551
:109038001305C404753791473EC00C405C4026C2F6
:1090480002C402C60A858297E2405244C2447101B2
:1090580082806F209010311122C626C406C8984518
:10906800AA842E84B28715C3D84169E30F00A00AE9
:109078000327C5140F00A00A55CB984519C7232606
:1090880005140327C5140F005005504C1CC454C4C4
:1090980035CA0C4C63FCC60436863E85232404007E
:1090A8002326040036C03EC2EF30A008504C82464A
:1090B800084C158E50CCB305D500EF30E008584069
:1090C80019CF924782462285BE853686913D7844DF
:1090D8008967F98F89C70146A28526852137370513
:1090E800AD0BC2403244A244510182803E85EF302C
:1090F80040045C4CB7050800232E04005CD013051F
:10910800C404813F545018445C443697958F23A279
:10911800E47023A4F4700F00500578448567F98F34
:10912800DDDF85479CD40F00500555BF184805E77B
:109138001CC854C823A2F47023A4D4700F0050058F
:1091480078449167F98FC1DF83A7042093E707026A
:1091580023A0F420C9BF3705AD0B2D0559B7311130
:1091680022C626C406C82A84AE840F00A00A930724
:109178000570D8473EC23AC00F00A00A884C154671
:109188009305A00AEF20B07E944C9247D4C395462D
:1091980094C70F0050052326041493070410FC47B6
:1091A8000F00500585475CCC0F00500502470F00A3
:1091B800A00A8327C4140F00A00AF5DB232804148F
:1091C800832704150F005005232604148327C4148D
:1091D8000F0050050F00A00A8327C4700F00A00AD3
:1091E800DCCC6312F702944C81471306A00A15479A
:1091F800B385F60083C505006397C5008507E39925
:10920800E7FE23AE0400C2403244A24451018280EA
:1092180041113707032026C206C622C4B2861306A8
:109228008773AE846C460052370602006D8EAA879B
:1092380019EA2244B24026869244AA851305877308
:1092480041016FF0FFCD084036C031C503238402C9
:109258002686BE851A95EF20D06D1C54370703204B
:109268003386F4005C4010D46304F600824685C659
:109278000C4013058773EFF0BFCA1C442324040273
:10928800232404001CC05C44232604005CC081C75E
:109298008547A306F402B2402244924441018280E9
:1092A800311122C606C826C49307055021472A84CF
:1092B800A303010098C30F00500593070570130717
:1092C8007100D8DF232005740F00500585473CC97D
:1092D8000F0050057CC90F005005A944854522851B
:1092E800EFF0BFBA2A8711ED2AC00545EFE09F903D
:1092F800FD140247E5F4C2403244A2443A855101C4
:10930800828023240416832784160F005005232007
:1093180004500F005005C5B70F00A00A8327051396
:109328000F00A00A89CBFC45B183858B89E72320F0
:1093380005500F0050058280797122D426D206D6B6
:10934800834745002AC62E843EC42245930500055E
:1093580037070320B305B502930787739304877310
:10936800AE97CC439DC9898A8DCA9C5F638C0718C8
:1093780085473EC2224793070005B307F702A69721
:10938800FC47C18B63900718B307C4003EC8C247A7
:109398006317F4003705AD0B8DAA02C2E1BFB247CF
:1093A80093060005324783C7470005461843B3862E
:1093B800D7023AC0A696945E89EAB70600E0E18E25
:1093C800370600206390C616014632D0F372043087
:1093D80093060005B386D702024516CE3ECCA69664
:1093E800EC4636CA8589EFF05FAAF242D246E247D8
:1093F800025693F2820001E573A002304DB7EC42A9
:1094080063DA05000F00A00A0247832547740F009E
:10941800A00AECC222830DC293060005B386D702C8
:1094280083450400A696905EC85E2A962300B6007F
:1094380003A38603D45E36939246024505469A8571
:1094480016CE3ECC1ACAEFF0FFA6F24273A0023045
:109458009247ADE7E247930600055243B386D70229
:10946800A696F446858A0245B6853ECE1ACC36CAFB
:10947800EFF0BFA10F00A00A824783A247740F0034
:10948800A00A0F00A00A824703A6C7730F00A00A0C
:10949800D2466243F24731E5E307C3FC13060005F1
:1094A800B387C702B385F400B5C6F3770430024525
:1094B8003ECA9D35D247A18B73A00730A24713053A
:1094C80000053385A702B387A400D443B1EAFC475B
:1094D800A18BB9C71305C504DD552695EFF05FB01C
:1094E80015A093050005B387B702B385F400E31D03
:1094F800C3FAE39B02FA7374043002452188293DBC
:10950800732004303705AD0B2105B2502254925414
:1095180045618280024785477CCB0F00500571B7B3
:109528000504B5B53705AD0B1105C5B7411122C402
:1095380026C206C62E84EC45AA8432C08589EFF07F
:10954800DF94824719ED7C4493E747007CC4856724
:1095580023A2F4300F005005B24022449244410146
:1095680082800C54505491CF3C40585C1D8E6373DC
:10957800C7003A86085CBE9532C0EF20903B0C5C71
:109588000246FD577CC02244B24026859244854657
:1095980041016FF03F925C41145150512A8791CBA1
:1095A8003385C74063F6A600058163F3A6003685B8
:1095B80019E948472322070219C563F6A600058161
:1095C80063F3A60036855C53AA975CD382801301A7
:1095D800C1FD26CC06D022CE8346450032C21306F2
:1095E80000053386C602AE84B705032093878573CA
:1095F80036C6B297B8473AC0138785733AC402474C
:1096080063110716130600052A8481453E85EF205D
:1096180010369048B24610C1D04810DD904C19C29F
:109628007D1650DD9050914763F5C70493070005F8
:10963800B387F6022247D04CBA9790CFC85015C9C5
:1096480003A304021306000381451353130036CA0B
:109658001AC888D33EC6EF209031B2474243D2465B
:10966800905323206602D04C8C5390C99C531A9671
:1096780090CF1040B705040083270620CD8F232004
:10968800F6200F00500593070005B386F602A2479F
:109698001247B6978546D8C3B4C71C400F00A00A26
:1096A80003A607150F00A00A15E22285A685EFF08C
:1096B8003F8C0840EFF0DFBE49E53705AD0B0505E7
:1096C80082507244E244130141028280214623A061
:1096D800C7500F005005D4D70F0050059306400619
:1096E80036C60F00A00A03A647120F00A00A21EAF7
:1096F8000F00A00A03A647110F00A00A29E2294576
:109708003EC4EFE02FCFB246A247FD16F1FA23A8D8
:10971800071403A607150F00500523A6071403A670
:10972800C7140F00500523A2071203A647120F0003
:10973800500523A007500F005005C1D2BDB785467C
:10974800F9B7924791C7B7041800938704223EC01F
:109758001C40024723A2E7300F0050053705AD0B28
:1097680085B73705AD0B3105A1BF111106CC22CA4B
:1097780026C82AC0834745006305061693020005DC
:10978800B3825702B703032093838373032305002F
:109798002E84B28436879E92B70303209383837303
:1097A8001EC283A342006394030295E283A7C20208
:1097B800639D071223A6C20216C0EFF0FFB78242CC
:1097C80023A60202E2405244C24471018280937689
:1097D800370099CAA28552440245E2402686C2440F
:1097E800BA8671016FF05FB5B70600E0E18E370603
:1097F80000206381C602130600053386C70292461D
:109808003696145E81C693764700A9CA3705AD0B14
:1098180029054DBF130600053386C70292463696C2
:109828007446858A81C693764700E1E6F37604306C
:109838004C56A9E144D600D6014693050005B385E8
:10984800B70292471A8536C0BE95EFF03FCE8246E2
:109858003705AD0BA18A73A00630ADB7F376043097
:109868004C5689E9784644D600D61367270078C64F
:109878000546E1B713060005B387C7021246B2973B
:10988800D05B21EA118B31C79857370600E0718FFA
:10989800370600206313C704F84780DBC4DB13676F
:1098A8000701F8C7A9473EC60F00A00A0327C31639
:1098B8000F00A00A39E3054536C41AC2EFE08FB39A
:1098C800B2471243A246FD17F9FF3705AD0B050550
:1098D80051B73705AD0B2D05B5BF3705AD0B2105C4
:1098E80095BF3705AD0B1905F1BD3705AD0B2D0536
:1098F800D1BD3705AD0B2105F1B582473707000407
:109908009C4323A2E7300F00500583270320370725
:10991800FCFF7D17F98F2320F3200F005005232625
:1099280003168327C3160F00500519C4232E83720C
:10993800232093740F0050053705AD0B21BF01118B
:1099480006CE22CC26CA8347450004413EC40F00F8
:10995800F00F83A744303EC00F00A00A824723A41B
:10996800F4300F0050052246930700053704032002
:10997800B307F602130784733E9750573EC211EEA1
:10998800824723A2F4300F0050053705AD0B1505AB
:10999800F2406244D2440561828092471304847382
:1099A8002EC61385C704A14522953AC8EFF06FEA81
:1099B8000546F0C80F005005B2464247B5CA6C4785
:1099C80013F71500BA8526853AC82EC6EFF0EFCBF7
:1099D800B24542476DD9F37704303EC635E30F00F0
:1099E800A00A03A784160F00A00A05C30547F8C8F4
:1099F8000F00500585452685EFF02FC965DD924794
:109A08002685B305F400EFF03F91B24713F78700BE
:109A18007320073023A4041603A784160F005005EB
:109A2800A247130700053387E7023A942326040266
:109A3800824723A2F4300F0050053705AD0B89BFCC
:109A48000F00A00A03A704130F00A00A4DFB75BF5F
:109A5800211106CA22C826C603444500130600057C
:109A6800370703203306C4021303877304412EC447
:109A780085659307C6049A973E8532C23EC0EFF0CB
:109A88004FDD85656D8D63170516A24637070320E0
:109A9800124693F546001307877391C9B707032049
:109AA8001383877332938325830163890514B7056C
:109AB8001800B307C70093850522138604303EC2F9
:109AC8000CC60F005005A145138604500CC20F00A8
:109AD800500523A60414138604106C460F00500585
:109AE80023A804142C4A0F00500523A20412505234
:109AF8000F00500511669395E600F18D09651396E0
:109B0800C600698ED18D02452166B606F18ED58DC7
:109B1800EFF02FD493060005B306D402B70703204D
:109B280013878773BA9690460DEED04219EE024518
:109B3800B71500FFFD15EFF0AFCA3705AD0B0905E6
:109B4800D2404244B2446101828012458D4536C4F8
:109B5800EFF06FBBA246B7070320138787739446BD
:109B6800F9D60F00F00F83A644300F00A00AC18A6F
:109B78009DCA93060005B306D402BA96D04205C61C
:109B8800F046B7060800F18E99CE0245B705F8FFF2
:109B9800FD15EFF0EFC412459945EFF0CFB6B707C2
:109BA80003201387877393060005B306D402BA9679
:109BB800F0468566F18E81E63705AD0B51B70F008B
:109BC800A00A83A604150F00A00A89E6854694D446
:109BD8000F005005930600053304D402229758431A
:109BE80061DF370718001307072223A2E4300F00AC
:109BF8005005D9B73705AD0B2D0599B73705AD0B0E
:109C080021053DBF011106CE22CC26CA03444500DA
:109C1800930700052E873304F4021C41B2863EC028
:109C28000F00F00F824783A747303EC20F00A00AFB
:109C38008247124623A4C7300F005005B70700E03B
:109C4800B7040320ED8F3706002093848473638064
:109C5800C70A338684001C52D5C74C42C5C58C43FD
:109C6800A9ED98C3984BD4C323A2070223A40702E3
:109C78003E853AC83EC6EFF01F92B2472AC4130683
:109C880010101305C4042396C702B70502002695D1
:109C9800EFF02FBCA246424702453A86B3858400BE
:109CA800EFF06FBB8247124723A2E7300F00500541
:109CB800F2406244D244056182808C47A1E998C78A
:109CC800D4C7184A3705AD0B71FF3E853EC4EFF087
:109CD8009F8CA247AA8603C7C70213061700058BE5
:109CE80009070E072386C702BA97984375B7B38743
:109CF8008400F047B7070200F18FD9DF3705AD0BB5
:109D080021054DB73705AD0B290569BF3705AD0BE3
:109D18002D0549BF111106CC22CA26C803444500A7
:109D280004410F00F00F83A604200F00A00A1303BC
:109D380000053303640237070320130587731A9558
:109D48000323C50437150400337565000563631ADA
:109D58006510130787730F00F00F83A744303EC0C8
:109D68000F00A00A824723A4F4300F00500589E5AC
:109D780093F60602C16599EA83A6042093F6F6FDD8
:109D880023A0D4200F005005B725040013030005B5
:109D98003303640232C69306C304B307D7003E8573
:109DA8001AC43EC2EFF0EFAA3246B7070320224397
:109DB8001387877309E6B3066700D442D1EEB70666
:109DC80018009386062223A4D4300F005005854638
:109DD800D4D40F0050050F00A00A83A644120F0028
:109DE800A00AF5DA93060005B306D4022166BA96EE
:109DF800EC466D8E21EE23AE06002685EFF00F941B
:109E0800930600053304D402B707032012451387CD
:109E18008773B71500FFFD15229723240700232811
:109E28000700EFF0EF9B82473707E8FF1307F7DDDE
:109E3800F98F3EC0824723A2F4300F005005370542
:109E4800AD0BE2405244C24471018280B305670001
:109E58002685EFF0CFB055B70547D8D40F00500589
:109E6800D1BF3705AD0B1505E9BF0347450093067C
:109E78000005B70703203307D70293878773BA977C
:109E8800DC438DE71C410F00A00A83A7C7140F000D
:109E9800A00A8DC389C91C410F00A00A83A7C770F7
:109EA8000F00A00A9CC13705AD0B82803705AD0BAA
:109EB800210582803705AD0B2D058280511122C204
:109EC80006C483474500130700052A84B387E702C1
:109ED80037050320130585733307F500584315CF5D
:109EE8009387C7043E95B7050004EFF08F96B70730
:109EF80000047D8D19C53705AD0BA2401244310110
:109F080082801C40371700F0A98393F7C77FBA9760
:109F180098431367170098C3F9BF3705AD0B2105A0
:109F2800E9BF1C4123AA071083A747110F0050055A
:109F38001C410F00F00F03A5074823A0A7480F00F6
:109F4800F00F8280511122C206C4834745001307CF
:109F580000052A84B387E70237050320B705F8FF11
:109F680013058573FD159387C7043E95EFF04F875A
:109F780018400F00A00A032707110F00A00AB70610
:109F88000800B377D500D98F014589CB1C4023A899
:109F9800071083A707110F0050050545A24012447A
:109FA80031018280130141FD06D422D226D00F0050
:109FB800F00F37471050832747300F00A00A8566F7
:109FC800F58F02C291CB0F00A00A832707130F0059
:109FD800A00AB337F0003EC20F00F00FB74610508A
:109FE80003A746300F00A00AB70700047D8FB70704
:109FF800032013848773631C0722584063080718DB
:10A0080002C40F00A00A3747105083264711639CEB
:10A0180006260F0050050F0050050F00A00A37470D
:10A028001050832747123EC081CB23220712930783
:10A038000020032747123EC0374710508326C770B9
:10A048000F00F00F0F0050050F0050050F00A00A79
:10A058008324071599C42328071403270715B70471
:10A0680010000F0050050F0050050F00A00A3747D9
:10A0780010508326C71499C6232607140327C7142C
:10A08800B70608000F0050050F0050050F00F00F2D
:10A0980037471050032647300F00A00A418A1DC6D3
:10A0A8000F00A00A032607110F00A00A05C236C632
:10A0B80023280710032707110F005005B7070320AF
:10A0C800994513858773EFE01FE4B2466388062835
:10A0D8000F00A00A374310508325C3700F00A00A51
:10A0E8007844370605000844798E58503336C00046
:10A0F800BA95EFF0EF9123220402F3760430784406
:10A1080041767D16718F78C418483743105023283C
:10A11800040018C45848232A040058C403270320FD
:10A128001377F7FD2320E3200F0050057844370606
:10A138000400A18AB375C7006382051873A00630AE
:10A148008247B9C3744437070200758F11C7185086
:10A158002320070023220700084419C50546814526
:10A16800EFF00F8B2324040074442167758F63116B
:10A178000724232E0400504CB707032093858773C8
:10A1880037451050EFE01FE6A247DDEF9247B5C70D
:10A19800B7441050056723A4E4300F0050057377C7
:10A1A8000430B707032093858773374510503AC0AA
:10A1B800EFF08F960247218B73200730585415CF44
:10A1C8001854631F0728737704300F00A00A83A66A
:10A1D80004130F00A00A99CE0C585054FD5674C0B1
:10A1E8003745105085463AC00CD423280402EFE0C6
:10A1F8007FCC0247218B73200730B70500FC370559
:10A208000320FD1513054578EFE09FDDB70700042F
:10A218007D8D6300052E1254A2508254B707032087
:10A228009D45138587731301C1026FE0DFCD0F00D1
:10A23800A00A03A786160F00A00AE30007DC58400F
:10A2480085473EC4E31F07DA784493760701639A8B
:10A258000616F37604300F00A00A3747105003267D
:10A2680087160F00A00A19CA232407160326871683
:10A278000F005005054670CB0F00500513F78600F8
:10A288007320073021B7232A0710832647110F00B0
:10A2980050050F005005894602CA02CC02CE36C8C6
:10A2A8000F00F00F832607482320D7480F00F00F30
:10A2B80058400C4036CE0808029785B30C4499EDF7
:10A2C80089656D8F09CB05472326E3020F005005EA
:10A2D8007844518F78C473A0063049A01166718FF5
:10A2E8000DCB85C073A00630744437070200758F04
:10A2F8002DEBB70703208D4513858773EFE0BFC0AB
:10A3080081B50F00A00A032703150F00A00AE31761
:10A3180007E237471050054610D70F0050050F00C9
:10A32800A00A832547120F00A00AD5D573A00630CE
:10A3380023220712832647120F00500523280714EB
:10A34800832607150F00500550D70F005005B70793
:10A358000320954513858773EFE0FFBAE38204DE97
:10A3680061B704502685EFF00FA3AA8605C503C779
:10A37800C402B70703209385877313061700058B5C
:10A3880009070E072386C402269710433745105045
:10A39800EFE07FCC03C7D402E30407DAB707032052
:10A3A8008D4513858773EFE01FB6A386040249BB6A
:10A3B800B70703209385877337451050EFE03FDADE
:10A3C8005DBBB74610500C54505423A4061603A581
:10A3D80086160F0050050F00A00A03A5C6160F0029
:10A3E800A00A218B498F09E70547B8CA0F00500515
:10A3F80037471050B70600042324D7300F00500504
:10A408008326072037050400C98E2320D7200F0094
:10A41800500573750430145821892328040214D474
:10A428005458232A040254D4744413F3F6FE232602
:10A43800640473200530A18A014591CA23220404CB
:10A448000F00A00A032647740F00A00A05452ECA6C
:10A4580058400C402ACE02C832CC080802973DB3B7
:10A468007444A18AF37504307844118B31C71054B1
:10A47800370700E0798E3A963336C0000147A18944
:10A4880073A005302C402E974C5438C06303B70096
:10A49800A1C270443ACC0C405D9A70C41054584024
:10A4A800B336D000232604022320040402C832CA8B
:10A4B80036CE0808029791B37840634407000546F2
:10A4C8007DBF0F00A00A03A744740F00A00AC5BFF0
:10A4D800F37404307844B7070320938587736D9B22
:10A4E8003745105078C4A188EFF04F8473A004302A
:10A4F80029B3A250125482541301C102828005C5A7
:10A50800511122C226C006C42A84EFD0CFD6AA840D
:10A51800EFD06FD6B3079540E3EC87FEA240124414
:10A528008244310182808280828001CD5845014574
:10A5380083471700858B99C7034507001335150016
:10A54800828001458280F377043001A0511106C44E
:10A55800DD3F511106C422C226C073740430B70708
:10A5680003209387877884472188CD377320043068
:10A578001244A2402685824431016F00D054511103
:10A5880006C422C21C41404189EF01455844834713
:10A59800170093E71700A300F700A2401244310107
:10A5A80082802285829775D19357F5413D8D1D8D07
:10A5B8009307F00F63D4A7001305F00F5C442380C2
:10A5C800A700E9B713172500B707032005059387E8
:10A5D80007210A0551113E97AA9722C226C00043B7
:10A5E800844306C463679400A24012448244310144
:10A5F80082805C4089C7228559372104E5B71C4011
:10A608008297E5BF0111B707032005470D4506CE20
:10A618002384E73422CC26CA7537EF10C03611459B
:10A62800370403204537B7040320130384B3938406
:10A6380084B6130484B363689302EF00102463663E
:10A648009406EF009025EFB05F91B707032093873A
:10A65800074A03C7C700799B2386E700F240624494
:10A66800D24405618280832743021AC83EC68327E5
:10A6780003023EC48327C3013EC2832783013EC031
:10A6880083274301032703018326C300032683008E
:10A698008325430003250300E5264243832703005F
:10A6A80023A067041303030379B710547D57545448
:10A6B8006314E6006387C6003367D600084009E7DD
:10A6C8007D2E13040403A5BFB7E702209385C7F1C5
:10A6D8006105EF00B05CF5B76F10702937050320EE
:10A6E800B7070320130685309387877A3386C740D8
:10A6F800814513058530CDB71303000601113303D7
:10A70800650226CAD144B707032093870744B715C3
:10A71800032022CCB7E602202A849385051BB304C4
:10A7280095023E93B7070320938787782605AA9555
:10A7380002C602C09386068613060020BE9485478B
:10A748003EC4BD473EC2268781471A8506CE1AC831
:10A75800052E42432388840005048347D3002E0432
:10A7680023A66400ED9BA306F300B7170320938785
:10A77800079B3E94C0C06244F240D2443705032090
:10A7880085451305453305616F10401A130181F79C
:10A79800A6DE01459304F10106C322C1E198EFF05A
:10A7A8007FE20142370403209307101013048478D2
:10A7B8002396F40004C423AA0404EFF0FFD6054549
:10A7C800EFF05FE00945EFF0FFDFEF009012B70709
:10A7D800032093878720B70403203EC6B7D60220FC
:10A7E8008547B71503201383044A01479386C6603B
:10A7F800130600409385053B3EC402C202C0814750
:10A808001385044A232A6400A52C1383044A83472A
:10A81800D3001385044AED9BA306F3002D2D0145B3
:10A82800E13DF37404300C44D557FCC52EC8F377CA
:10A838000430EF00100AC2452ECA638CA50008C474
:10A848002AC8EF00B02FC247D2458942A84B7300EF
:10A858000000A18873A00430511106C4F3770430B6
:10A86800EFB07FF4E5BF31119307850026C406C811
:10A8780022C6AA8436873EC07374043003230502B7
:10A888005445637FD3042EC2212F904492452A87D2
:10A8980005C548493AC2EF10D00912473A85232620
:10A8A8000704552B0245A285EF0080720145C2407E
:10A8B8003244A24451018280C84CEF109007D84C12
:10A8C80094443697D448D8CC6314D7009848D8CC49
:10A8D80098500145050798D0218873200430C1BFDE
:10A8E800B366E6001305D0FDE5DAB70603209386C4
:10A8F800867894460245CCCAA2853244C240B286C4
:10A908002686A244510111AD311126C4AA84938729
:10A91800840006C822C62E8536873EC0737404306C
:10A928009450B5C690448C4CEF10B000984C9444A9
:10A938003697D44898CC6314D700984898CC985048
:10A9480026857D1798D0A92D814635C590444C4958
:10A958002AC2C84CEF10E07DD44C90441247B296FE
:10A96800D048D4CC6394C6009448D4CC94503A854B
:10A97800850694D023260704F9290245A285892D46
:10A988008146C2403244A244368551018280B36573
:10A99800E6009306D0FD85C1B70603209386867826
:10A9A8009446A285C8CA32440245C240B286268669
:10A9B800A24451019DA3218873200430D9B7AA87E6
:10A9C800295509CA6368B6008CC7D0C79CC3DCC3C5
:10A9D800014582808280511126C006C422C2AA8401
:10A9E80073740430752B11CD23260504AD21A2857F
:10A9F8001244A2408244370503201305857A3101A9
:10AA0800C1AB9844DC442188998FB337F000BA97DA
:10AA18009CC473200430A2401244824431018280D5
:10AA2800AE863287F37504301C4581CBFD171CC5F3
:10AA3800A18973A0053001458280B3E7C60091E77C
:10AA4800A18973A00530415582802A8637050320E5
:10AA58001305857AD9A1B707032003A5877833356D
:10AA6800A0008280B7070320938787789843014521
:10AA780011E79C4703D5E7001335050882809DAB95
:10AA8800011106CE22CC26CA2E83930545046CC13B
:10AA98002CC5A2559304F600C1982306B50091452C
:10AAA800A306B50092559A94232405002307B50000
:10AAB800A3070500A685232C0500232E05002A845C
:10AAC80036C83AC63EC41AC2EFB0BFC102561243D6
:10AAD8003D05A2473247C2464199898C32C022853A
:10AAE80026869A85EFB09FBCB7070320938787789F
:10AAF8009C47232004042685FC4B7CC8F240624412
:10AB0800D24405618280511122C206C42A84AA85D2
:10AB18000845EF00306C8347D40023240400F59BDC
:10AB2800A306F400A24012443101828041112AC0D8
:10AB3800370503201305057A22C426C206C6B704C2
:10AB48000320EF00506A0247938484782A8411E135
:10AB5800C0449C4419EB03C7D7007D8B19E783D603
:10AB6800E7001307F0076368D7006305F400228540
:10AB7800EF00C07CA287DCC8B24022449244410165
:10AB88008280511122C206C48347D5002A841397B4
:10AB980087016187635D070093F7F707A306F50050
:10ABA800AA85370503201305057AEF00B062B707B9
:10ABB8000320938787788847A240018D1244133574
:10ABC80015003101A5B7311122C63704032026C468
:10ABD8009307847806C8AE848C47D55713048478C5
:10ABE800FCC5B70703209387877A6384A700F377A8
:10ABF800043048482EC2638CA50008C42AC0EF0060
:10AC0800E073024592458942284973000000A188F3
:10AC180073A004301C44C2403244E847A2445101A6
:10AC280082800347D50093178701E18763C407062D
:10AC38009377F701A5E31C4DB1EF136707F8A30657
:10AC4800E5003707032093068778904EB706032060
:10AC58009386067A130787786303D600B287504F26
:10AC680091E714C150C108C248CF31A88305E50057
:10AC78000383E700638C650063DA6500D8431CC171
:10AC880058C108C3C8C301456FF05FEAE30BF6FC7F
:10AC98009C43F9B78280311122C626C406C82EC04B
:10ACA8002A84A14411E2C1448347D400B3F6F400D6
:10ACB8008DE2C58F93F6F709139686016186634E78
:10ACC8000602A306D400A1476384F4040545EFF007
:10ACD800FFE5B707032093878778984763188706A7
:10ACE8009C43ADE732448245C240A2443705032065
:10ACF8001305857A51016FF01FEDFD8B3705032091
:10AD0800A306F400A2851305057AEF00B04C65BFD1
:10AD18001C4481C72285EFF01FDF13058401EF0073
:10AD2800D00A130744046440E382E4FAC5D02685B8
:10AD38003AC2EFF05FDD13858401EF001009268524
:10AD480023A60404EFF0FFED1247F1BF824793F406
:10AD5800870073A00430C2403244A244510182806B
:10AD6800511122C226C02A8406C4AE84EFF07FE1C6
:10AD78008347D40093E72700A306F4008DCC04C4CE
:10AD88009C40639CF400DC4004C05CC080C3C0C02D
:10AD98001DA0D840E309F7FE9C43F5D70307E4005C
:10ADA8008386E700E307D7FEE355D7FED8431CC0E8
:10ADB80058C000C3C0C3A2401244824431018280FB
:10ADC800511122C206C48347D5002A8413978701EC
:10ADD8006187635D070093F7F707A306F500AA8567
:10ADE800370503201305057AEF00D03E8347D400CA
:10ADF80037070320B706032093E707F8A306F400F4
:10AE0800930787789C4F9386067A1307877863930E
:10AE1800D7008147504F91E714C050C000C240CFBF
:10AE280031A88305E4000385E7006382A50263D0A7
:10AE3800A502D4431CC054C080C2C0C30847A24066
:10AE4800018D12441335150031016FF03FCEE30533
:10AE5800F6FC9C43C9B7511106C422C2737404306E
:10AE6800EFF03FDC218873200430A2401244310106
:10AE78008280511122C22A84610506C4EF00E07461
:10AE8800F37504308347D400C18B81CBA18973A0AB
:10AE98000530A24012443101828022851244A2402A
:10AEA800014631016FF03FDF511106C422C27374AD
:10AEB80004301C4599C3EFF01FC521887320043066
:10AEC800A240124431018280411106C622C426C222
:10AED800F37404308347D50093F7870285E71C4550
:10AEE8002A8489C72EC0EFF01FC282450347D400C9
:10AEF8009377B70E99E19377B70FA306F4002285ED
:10AF0800EFF03FD2A18873A00430B24022449244AB
:10AF1800410182808545211545BF111122CA2EC0E5
:10AF280006CC26C8B2853A84F3770430B7070320E5
:10AF3800938787788847B68436C62AC23AC4EFF022
:10AF48003FE2FD56124532466395D4002247630915
:10AF58009700B7E50220A2869385C5F161053D2BD0
:10AF680052448245E240C244370503201305857ADE
:10AF780071016FF05FC5511106C422C226C0F37477
:10AF88000430EF0050262A8419C1EFF0DFB7A188FA
:10AF980073A00430A2402285124482443101828089
:10AFA800511106C422C226C0F3740430EF00B02346
:10AFB8002A8411C5EFF03FB5130584013925A1880E
:10AFC80073A00430A2402285124482443101828059
:10AFD80013F7850009CFB707032093878778944331
:10AFE80099E6D44B9C476384F6006FF0DFBD73206D
