:1000000070120020310D00002F5800001D0D00005F
:100010001D0D00001D0D00001D0D00001D0D000038
:100020000000000000000000000000003D0E000085
:100030001D0D000000000000FD0D00001D0D000062
:10004000B10F0000B10F0000B10F0000B10F0000B0
:10005000B10F0000B10F0000B10F0000B10F0000A0
:10006000B10F0000B10F0000B10F0000B10F000090
:10007000B10F0000B10F0000B10F0000B10F000080
:10047C0053B94AB9002908BF00281CBF4FF0FF31FF
:10048C004FF0FF3000F00CB8ADF1080C6DE904CE64
:10049C0000F008F8DDF804E0DDE9022304B0704751
:1004AC00704700BF2DE9F04786468C460846089EEB
:1004BC00154674461946002B40F0C1808542B2FAAD
:1004CC0082F245D94AB1C2F1200300FA02FC9540F0
:1004DC0094402EFA03F343EA0C0C4FEA154EA8B2E3
:1004EC00230CBCFBFEF80EFB18CC08FB00F943EA0E
:1004FC000C43994528D9EB1808F1FF3704D29945DC
:10050C0002D9A8F102072B44A3EB0903A4B2B3FB55
:10051C00FEFC0EFB1C330CFB00F044EA0344A0422F
:10052C0014D92C190CF1FF3304D2A04202D9ACF12E
:10053C0002032C44241A43EA07401EB1D440002382
:10054C0034607360BDE8F0874746DDE76346F1E74A
:10055C0092BB431B01214FEA154EAFB2200CB3FBEB
:10056C00FEFC0EFB1C330CFB07F840EA03439845DA
:10057C0061D9EB180CF1FF3004D2984502D9ACF1DB
:10058C0002002B44A3EB0803A4B2B3FBFEFC0EFB4E
:10059C001C330CFB07F744EA0344A7424DD92C1932
:1005AC000CF1FF3304D2A74202D9ACF102032C4464
:1005BC00E41B43EA0040C0E7C2F12003954094409D
:1005CC0020FA03F12EFA03F34FEA154E9040AFB226
:1005DC000343B1FBFEFC0EFB1C10190C0CFB07F8C3
:1005EC0041EA0041884522D969180CF1FF3004D248
:1005FC00884502D9ACF102002944A1EB08019BB259
:10060C00B1FBFEFC0EFB1C110CFB07F743EA01438C
:10061C009F420ED9EB180CF1FF3104D29F4202D944
:10062C00ACF102012B44DB1B41EA004193E760462D
:10063C00E3E76146F7E76046A4E76346B8E7834221
:10064C0006D916B9002108467CE7C6E900E0F9E7AF
:10065C00B3FA83F78FB9834201D3724508D8BEEB46
:10066C00020460EB030301209C461EB9002169E7DC
:10067C003846FAE7C6E9004CF8E7C7F1200CBB4056
:10068C000EFA07F522FA0CF42EFA0CF1BA401C43C0
:10069C0020FA0CF3B8404FEA144901431FFA84FEC8
:1006AC00B3FBF9F809FB18300B0C08FB0EFA43EA04
:1006BC0000439A4540D9E31808F1FF3004D29A451B
:1006CC0002D9A8F102002344A3EB0A0389B2B3FBBD
:1006DC00F9F809FB183308FB0EFE41EA03418E457D
:1006EC002CD9611808F1FF3304D28E4502D9A8F138
:1006FC000203214443EA0040A1EB0E01A0FB029847
:10070C004145CE46434602D306D14D4504D201386D
:10071C00B9EB020E68EB0403002EA7D0B5EB0E026A
:10072C0061EB030101FA0CFC22FA07F3F9404CEAE5
:10073C000303C6E9003199E74046C5E74346D9E7CC
:10074C0008B50D4804F09CFC4FF480320B4B002193
:10075C00C3F84423C3F804234FF40042C3F84025E4
:10076C000122C3F808151A60C3F84011D3F84001F0
:10077C000028FBD09A60F7E7AC74000000600850CA
:10078C00014B1B68184700BF0000002030B585B036
:10079C0004460D4610220021684606F0ACF80223F0
:1007AC008DF80230044B2A4621466846019304F02A
:1007BC0087FC05B030BD00BF8D070000014B1860F1
:1007CC00704700BF0000002080B505460E46174656
:1007DC00984604F0BFF9034606F096F80446DFF895
:1007EC001890424649F8003039463046A84754F82C
:1007FC00090000F0AFFA00BF080000002DE9F04737
:10080C00058B04462807904611D4022905F00705EC
:10081C0040F0CC80204604F026FF78B10138218BC3
:10082C00042811D8DFE800F0C2106D85950001296D
:10083C000CBF45F0100545F02005258388F3118881
:10084C00BFF36F8FBDE8F08701F0070AAA4500F0EF
:10085C00A5800027B9463E46A368002B00F0BC805B
:10086C0041F00801218388F31188BFF36F8FA168D1
:10087C00002900F0BA800D68002900F0B6803346DC
:10088C0052462046D1F80480C047002D76D02B6804
:10089C0029461D46F0E701F007035A1F012A1BD811
:1008AC00002221F00701062B276889B2C4E9002237
:1008BC0009D13B4603E0628B013262831B68002B3B
:1008CC00F9D141F002012046218304F0CCFE00282E
:1008DC007AD041F0200176E0042B0AD121F00701F7
:1008EC0089B22046218304F0BEFE10B141F02001F4
:1008FC002183218B01F0070AAA454FD00027B94666
:10090C00AAE7236921F0070141F00601062DD3F86F
:10091C00009021832DD1B9F1000F3FD041F0080197
:10092C00218388F31188BFF36F8F20463949C8475C
:10093C0029E021F00701236941F0040189B2042D5B
:10094C00D3F804902183E6D000274FF0040A3E46EA
:10095C0082E721F00701236941F0050189B2052DD9
:10096C00D3F808902183D6D000274FF0050A3E46D5
:10097C0072E700274FF0060A3E466DE72B4687E7E5
:10098C00B9F1000FD1D1EFF31188202383F3128832
:10099C00BFF36F8F238B23F008032383258BEA0689
:1009AC002ED525F01003238305F007056669218BEE
:1009BC00002EBFF670AF00232768C4E9003321F086
:1009CC00070141F001012183218B4FF0000901F057
:1009DC00070AAA457FF440AF002F9CD041F00801D4
:1009EC00218388F31188BFF36F8F002FC8D03D6827
:1009FC00394633465246204604F061FE2F46F4E752
:100A0C00AB067FF51BAF25F02003238305F007050C
:100A1C0000E700BFF7560000014B03600020704751
:100A2C009872000030BFFFF7FDBF00BF2DE9F04109
:100A3C0005460B4EDFF82C80324606EB0807CC1B24
:100A4C002046094905F030FFA01942460021083C18
:100A5C0005F051FF2C6707F10800BDE8F08100BFDD
:100A6C00000000000400000068720000074A936850
:100A7C0093F90E10002907DB526993421FBF044AF9
:100A8C00536843F080535360704700BFF804002054
:100A9C0000ED00E0154B9A6A12F0007F9A6A14BFC1
:100AAC001E201D2012F0807F9A6A18BF1F2012F49E
:100ABC00801F9A6A18BF022012F4002F9A6A18BF7E
:100ACC00212012F4802F9A6A18BF222012F4003FC2
:100ADC009A6A18BF232012F4803F9A6A18BF242008
:100AEC006FEA02426FEA12429A62704700ED00E030
:100AFC0010B5194B0246986A9C6A10F4805F14BFBB
:100B0C001720162014F4006F9C6A18BF1820A40537
:100B1C0009D5986B986A000404D51AB19A6A22F424
:100B2C0000429A6219200C4B9A6A12F4806F9A6AEE
:100B3C0018BF1A20D2050CD49B6A13F4005F18BF9F
:100B4C001C20054A936A43F47F43936200230B7085
:100B5C0010BD1B20F5E700BF00ED00E010B51C4BED
:100B6C000246986A9C6A10F0100F14BF11201020D6
:100B7C0014F0080F9C6A18BF1220A40709D5586BF3
:100B8C00986A000604D51AB19A6A22F080029A6219
:100B9C0013200F4B9A6A12F0010F9A6A18BF142097
:100BAC0012F0200F9A6A18BF1520D40658BF9B6A02
:100BBC00074B9A6A920642BF5A6A22F400525A6252
:100BCC009A6A42F0FF029A6200230B7010BD00BFBC
:100BDC0000ED00E0F0B5474B04465B6800258BB098
:100BEC00C3F3080385F31188BFF36F8F02F07F40C6
:100BFC00B0F17F4F11D102F00C0008280DD0100776
:100C0C004CBF0C4601250022033B8DF80720032B1B
:100C1C0005D8DFE803F02462665F2C46F3E7002377
:100C2C009DF80720CAB902AE04F1200732462068AD
:100C3C006168083403C2BC421646F7D1099A002DEC
:100C4C0053D0C2F3080121B96FEA52226FEA422253
:100C5C000992184602A904F0DEFD0BB0F0BD254B3D
:100C6C00DA6A9107DBD4DA6A002AD8DBDA6A520036
:100C7C00D5D55A69A16942F480725A61BFF34F8F7E
:100C8C00BFF36F8F5A6931F8021C22F480725A61DB
:100C9C00BFF34F8FBFF36F8F4DF60272914209D0A5
:100CAC009A6AD2B242B101200DF10701FFF756FF4B
:100CBC000346B5E72368B3E79A6A12F47F4F05D071
:100CCC0001200DF10701FFF713FFF1E79B6AB3F564
:100CDC00803FA4D3FFF7DEFEEAE700200DF1070109
:100CEC00E4E700200DF10701EDE722F4FF7222F09A
:100CFC000102ADE700ED00E0044B5A6942F010022E
:100D0C005A615A6942F480625A61704700ED00E002
:100D1C00EFF30880EFF3098101B57246FFF75AFF34
:100D2C0001BD00BF01F0C4FA202080F311880848EF
:100D3C004FF40061401880F30988EFF3148002210E
:100D4C00084380F31488BFF36F8F00F0B3F80000F2
:100D5C0030050020084B9B6883420BD1EFF30583D1
:100D6C0043B1064B5A6842F080525A605A6A22F4D8
:100D7C0000425A6205F0C3BCF804002000ED00E00C
:100D8C006FF00A01084A93689967084958674B68DD
:100D9C0043F080534B60002383F31188BFF36F8FB4
:100DAC009368986F704700BFF804002000ED00E0D6
:100DBC00EFF31183202383F31288BFF36F8F4FF06F
:100DCC000061084A53699360074A5160196F074ADA
:100DDC00116000215A6F596782F31188BFF36F8F2E
:100DEC00704700BFF804002000ED00E0280300204D
:100DFC000E498A684FF030001044EFF3098C80E8FC
:100E0C00F01F74467046FFF7D3FFA64607498A6861
:100E1C0002F1300090E8F01F8CF3098802F1000019
:100E2C0004B504F009FDBDE804407047F804002047
:100E3C001EF0040F0CBFEFF30880EFF309808169FB
:100E4C0011F8021C0229FFD001B504F0E6FC01BD2B
:100E5C0000B2002807DB01234109034A00F01F0000
:100E6C00834042F82130704700E100E0054B420915
:100E7C0053F82220012300F01F0003FA00F0104069
:100E8C00704700BF00E100E000B2002801F1010151
:100E9C00ACBF00F16040064B4FEA4111C9B2ABBF89
:100EAC0000F5614000F00F0080F8001319547047F2
:100EBC0014ED00E00F4A08B50F4B22F07F029A6048
:100ECC00BFF34F8FBFF36F8FD3F8882022F47002DB
:100EDC00C3F88820EFF3148323F0040383F31488FE
:100EEC00BFF36F8F03F09AFA03F0C0FE00F04AF8DC
:100EFC0003F0DEFA0000000000ED00E042F8203CB8
:100F0C00009B0B4942F81C3C019B21F0010142F86B
:100F1C00183C029B42F8081C42F8143C4FF08073BA
:100F2C0042F8043C0023203A02654367704700BF37
:100F3C00D50700000C4B15469860026F0B4B0E4604
:100F4C001A60036E83F30B882C4686F309884FF0E6
:100F5C000000074B984720464FF000014FF000026D
:100F6C004FF00003034C2047F80400202803002016
:100F7C004D580000D50700001022014B1A61704734
:100F8C0000ED00E00023202040F20F1210B5044CBD
:100F9C00E1180133934281F80003F9D110BD00BF71
:100FAC0000E100E008B5EFF30583064A103B02EBC5
:100FBC00C30152F8330049688847BDE80840FFF781
:100FCC0055BD00BFF06900001FB5094C094A234606
:100FDC000121094800F0FAF800230393074B012183
:100FEC00E41A01A80193029400F0FAF804B010BDC1
:100FFC000080022000000020987200007001002088
:10100C0010B50C7A0B6804F01F0223F01F031A436F
:10101C00CB68640923F01F03054943EA440343F0FA
:10102C000103C1F89800C1F89C20C1F8A03010BD94
:10103C0000ED00E010B5074BD3F89030C3F3072355
:10104C00013B984202D8FFF7DBFF10BD6FF0150093
:10105C00FBE700BF00ED00E02DE9F04F0F46144612
:10106C0006464FF000084D4D85B0B84580F2928091
:10107C00D6F80490B9F1000F36D0B9F11F0F40F239
:10108C00878019F01F0F40F08380D6F800A01AF06B
:10109C001F0F7DD1504604F0EEFB834609EB0A008E
:1010AC00013804F0E8FB834572D11BF1160F6FD0A9
:1010BC005C456DDDC5F898B0D5F89C10C5F898B0B6
:1010CC00D5F8A03021F01F0143F01F0AD6E90032F9
:1010DC001A44994202F1FF391ED1CA4508D1314652
:1010EC005FFA8BF004F0D0FB08F101080C36BCE77A
:1010FC003146C5F898B0D5F89C3022F01F0203F0A9
:10110C001F031343C5F89C30E0B204F0BDFB10F193
:10111C00160F3DD0441CE7E7C5F898B0D5F8A020D1
:10112C00013B23F01F0302F01F021343CA45314653
:10113C00E0B2C5F8A030E8D004F0A6FB10F1160F11
:10114C0026D0C5F898B0D5F89C209DF808300AF147
:10115C00FF3A62F304038DF80830D5F8A0309DF8FF
:10116C0008205B0863F347128DF80820D6E900329B
:10117C001344009323F01F035344A3EB09030130E2
:10118C0023F01F036946C0B20393FFF753FFBEE77A
:10119C006FF01504204605B0BDE8F08F00ED00E0BF
:1011AC000522044BC3F89420BFF34F8FBFF36F8F0E
:1011BC00704700BF00ED00E0BFF35F8F0022024BD1
:1011CC00C3F89420704700BF00ED00E010B5034C4D
:1011DC002278FFF741FF207010BD00BF28050020CA
:1011EC002DE9F74F294D8A4606464FF00008AB46CD
:1011FC00274FD0451BDAD6F80490B9F1000F3FD039
:10120C0031680846019104F036FB0199044609EB5C
:10121C000100013804F02FFB84424FF014021D4BE7
:10122C0008D002FB08F36FF015024BF8032003B053
:10123C00BDE8F08F14F1160F2C60F8D01978A1428C
:10124C00F5DD02FB08B0C7F89840C7F89840D7F80E
:10125C009C4000F10801007B64F304000871D7F88E
:10126C00A0000C79400860F347140C71D7F89C105F
:10127C0021F01F016960D7F8A01021F01F0129612E
:10128C0008F1010814350C36B3E700BF2C0300201D
:10129C0000ED00E028050020F0B54149414CD1F8A3
:1012AC0090302568C3F307239D4287B075D8002082
:1012BC00FFF782FF3C4BC1F8C030854216D13B4C46
:1012CC0001A82570FFF7A8FB00250646384FAE4253
:1012DC0013D1002023783249D1F89020C2F3072291
:1012EC00934254DBFFF75CFF00204EE0616801EB9A
:1012FC000011FFF785FE0130DFE70199280101EBB2
:10130C000513DA683A40B2F5001F22D0B2F5800F0F
:10131C002CD0B2F5801F36D15A689B680958013B16
:10132C0022F01F0003440120844623F01F0340EAEF
:10133C004C10CDE902218DF8100002A920780593FC
:10134C00FFF778FE00281EDB23780135013323706C
:10135C00BDE75A689B680958013B22F01F00034403
:10136C004FF0020C012023F01F03E0E75A689B6842
:10137C000958013B22F01F0003444FF0000C0620DB
:10138C0023F01F03D3E76FF0150007B0F0BDC1F8D1
:10139C009830C1F8A00001339EE74FF0FF30F4E71E
:1013AC0000ED00E0A4720000AAFF44002805002014
:1013BC000000F0FF08B5024B1B689847002008BDE1
:1013CC0040030020034B044A1860937843F0020357
:1013DC0093707047400300200400002008B50649B4
:1013EC00064821F00701C1F1005202F5203204F049
:1013FC00EEF8002008BD00BF771200204403002047
:10140C0008B500F03FFF00F049F843F6F0731748B9
:10141C00D0F82416C1F3080203EA1133172182F421
:10142C008072883201FB02339A0A9B054FF0260327
:10143C000F4948BF0132C1F80429D0F82006C0F387
:10144C00080282F4807202F217225A4340F6FC73AF
:10145C0003EA903303EB92031B0AC1F81C370123F8
:10146C00044A00201363C1F8003608BD00C0FF0019
:10147C000000125000E0105048B1054B054A1B68A3
:10148C00B3FBF2F35843044B43F001031847704786
:10149C003000002040420F00807200000122024BFD
:1014AC00C3F80424704700BF002008E0084B70B557
:1014BC00C31A0D4607499B1004465943402206485F
:1014CC0004F029FA2B4601462046BDE87040184727
:1014DC0064030020B76DDBB68C690000402373B544
:1014EC000B4C0093041B0B460D460A49A410614398
:1014FC000646094A094804F03AFA011E05DA304654
:10150C002B4602B0BDE87040184702B070BD00BF5A
:10151C0064030020B76DDBB6E55900008C69000050
:10152C0010B5EFF31184202383F31288BFF36F8F70
:10153C00074A136823F00201DB07116002D4012073
:10154C0004F0E7FD84F31188BFF36F8F10BD00BF6B
:10155C00B403002070B50022012104464FF48770BB
:10156C00FFF792FC0F4800F081FF0F4B984215D10A
:10157C0000F08CFF26690D49304604F0C3F80028B2
:10158C000BDB012535642469084904F11C0004F0C7
:10159C00B9F8002801DB0020E56470BD6FF0040091
:1015AC00FBE700BFB51600000000AD0BE0720000B9
:1015BC001FB500220123CDE902236B46084ACDF862
:1015CC0000D0CDF804D004F000FA002805DB41F27D
:1015DC0088320023684602F0FBFF05B05DF804FB7F
:1015EC00035A00000C22104B014602FB0033002072
:1015FC0030B4D3E90E529863EFF31180202484F3B6
:10160C001288BFF36F8F1C6C04F0C00444F002040A
:10161C001C6480F31188BFF36F8F1DB12B4630BC57
:10162C000248184730BC7047640300208C690000E6
:10163C0010B4EFF31182202383F31288BFF36F8F62
:10164C001648016841F002040460C80707D482F30D
:10165C001188BFF36F8F012010BC00F02DBF104913
:10166C00D1F80C14C903F2D5EFF3118083F312886F
:10167C00BFF36F8F0B490B6C03F0C00343F00203F5
:10168C000B6480F31188BFF36F8F82F31188BFF363
:10169C006F8F002010BCFFF7A5BF00BFB403002064
:1016AC0000E010506403002010B1012804D07047F2
:1016BC00034B1B6C5B0701D1FFF794BF704700BF56
:1016CC00640300202DE9F041012207463449D1E89A
:1016DC00EF3FC1E8E02F0028F9D133B93149324846
:1016EC004B60CB608A6004F020F87B1E012B28D85D
:1016FC00012F06D12D4BD3F8503403F00303012BEB
:10170C001FD004F033FF0546E8B9294B1B78D3B141
:10171C0004220646254BC3F80823244CDFF894809A
:10172C00D4F84C24D4F84C34D20315D503F003036D
:10173C00012B01D0012F0FD16DB386F31188BFF3AC
:10174C006F8FBDE8F081EFF31186202383F31288AD
:10175C00BFF36F8F0125E0E7C5B1304604F082F886
:10176C00D4F8403413F0FF03DAD1D4F80821002A5E
:10177C00D6D0C4F80831D4F808314FF48042012394
:10178C00C4F84034C8F8A0212361C9E700210A201D
:10179C0003F0C2F9E4E70422044BC3F80423D0E7B6
:1017AC0060030020500300208003002000E0105054
:1017BC002905002000E100E008B5074804F08DFE83
:1017CC0038B10648FFF7FEFD0448FEF7F7FF00208E
:1017DC0008BD6FF01200FBE7DC690000ED1700009C
:1017EC000A2838B50446074D04D1AB680D212846AC
:1017FC005B689847AB6803485B68E1B29847204642
:10180C0038BD00BFDC69000038B545682B69E3B111
:10181C001035284601F0BAFA0446B0B901462846FC
:10182C0001F072FA0B4B984211D1224628460A4914
:10183C0001F03EFA22460121DB20FFF725FB224670
:10184C00012140F20D10FFF71FFB002038BD6FF097
:10185C000400FBE70000AD0BF11900002DE9F0438B
:10186C0040F206354668D00648BF0320337B02EAB7
:10187C00050558BFC2F3401087B001F01F07B5F53E
:10188C00837F144647EA43178DF8030045D00FD8E1
:10189C00062D44D007D8B5B1022D14D06FF0150029
:1018AC0007B0BDE8F083B5F5807FF7D101250AE0DC
:1018BC0040F20222954234D0B5F5407F33D0B5F5D5
:1018CC00007FEBD1042522032FD5012372688B40B6
:1018DC005360326982BB5F2F07F01F034FEA571129
:1018EC0077D83E4A52F8212084F4803102EB8302EF
:1018FC00D2F88030C1F30041C4F3404423F4706348
:10190C0044EA410423F00F031C4344EA800444EAF4
:10191C000524C2F880400020C2E70925D3E708253A
:10192C00D1E70625CFE70525CDE7630341BF0123AA
:10193C0072688B409360CCE71036394630460DF117
:10194C00020201F0C3F914F4403F80460CD1394631
:10195C00304604F0A3FC224B9845DCD130469DF870
:10196C00021001F021FAD6E74FF0000901AB39461D
:10197C00304603AACDE90439CDE90199CDF80C9094
:10198C0001F00CF8164B984288D114F4003315D0A2
:10199C009DF8033084F48034C4F300448DF80E3089
:1019AC0039464B46304603AA8DF80C508DF80D4045
:1019BC0001F0EAF80A4B9842CDD06FE7CDE9043339
:1019CC0039460DF10303304603AA039300F0E6FFFA
:1019DC00F0E7203352F82330FFDE00BF187300000D
:1019EC000000AD0B4209022A034670B503D0012A50
:1019FC0018D0CAB170BD0E4E326951680029F9D0A9
:101A0C00012503F01F030C689D400029F2D08A6861
:101A1C002A4002D030464B6898473CB12368214697
:101A2C001C46F2E7034EE7E7034EE5E72346F6E7ED
:101A3C00C8690000B4690000A0690000F0B54068F6
:101A4C0001F01F04057B87B044EA45140569002D9D
:101A5C0063D0B2F5001F00F1100506D121462846CF
:101A6C0004F01EFC002007B0F0BD0027B2F5800F7B
:101A7C0001AE019777603BD1B3F1007F14BF052312
:101A8C0004238DF804300023CDE9046303938368A9
:101A9C0023FA01F111F001011CD1B2F1A07F19D18F
:101AAC0004F01F035F2C4FEA541003F120033AD8C3
:101ABC001E4A52F8202052F82330DB070AD40DF1CD
:101ACC00030632462146284601F000F9184B98428D
:101ADC0019D002962146284603AA00F05FFF154B49
:101AEC0098421DD101222146284601F075F9B9E72B
:101AFC00B3F1C06F05D0B3F1007F14BF01230223F3
:101B0C00BFE70323BDE73146284601F059F9094BDD
:101B1C009842DED06FF00B00A5E76FF08500A2E7CE
:101B2C006FF015009FE751F82330FFDE18730000AB
:101B3C000400AD0B0000AD0B2DE9F0430027DFF8DE
:101B4C00E0C0FBB2994202D80020BDE8F08350F807
:101B5C002750C5F34324082C05F07F0352D87F2B64
:101B6C004FEA154508BF4FF0FF331CF80440032D16
:101B7C004BD8DFE805F002083336C2F804365D1C9A
:101B8C0032D10137DDE7C2F80C365E1CF9D00025E6
:101B9C0050F827804FEA531908F40056002E0EBF58
:101BAC00AE464FF0010E00255F2B03F01F0632D816
:101BBC001C4BC8F3C11853F8293003EB8606D6F832
:101BCC0080902302184C43EA880309EA0404234357
:101BDC002B4343EA4E03C6F88030D2E7C2F81036E6
:101BEC00CDE7C2F80836D0E75D09032D10D00D4EB5
:101BFC0056F825E0012503F01F0605FA06F6CEF887
:101C0C000460C5E76FF015009FE76FF085009CE757
:101C1C0000235B60FFDE0023203653F82630F9E703
:101C2C000375000090730000F0F0FCFF08B503464C
:101C3C001B6940689B6804309B070CD501F0DCFFE6
:101C4C00074B98420AD00B3398420CBF6FF00F0031
:101C5C006FF0040008BD6FF00C00FBE70020F9E703
:101C6C000000AD0B10B5036904465868483004F009
:101C7C008FFD606800220121043002F027F8034B2D
:101C8C00984214BF6FF00D00002010BD0000AD0B8A
:101C9C0008B540680021043001F0BCFE034B9842AB
:101CAC0014BF6FF00D00002008BD00BF0000AD0B8D
:101CBC0070B545680C46AA6C2E1D52070BD583686F
:101CCC001B690BB9002070BD01229847B0FA80F057
:101CDC0040094042F7E70369596869B9304602F098
:101CEC0067F8084B98420AD1A96A01220B78304652
:101CFC00237001F081FFE5E76FF00F00E3E74FF091
:101D0C00FF30E0E70000AD0B73B5066940681C4678
:101D1C0090F838500023043001F0CEFD144B98425B
:101D2C0008D00B33984214BF6FF004006FF00F0013
:101D3C0002B070BD012D01D1631C01D10020F7E769
:101D4C0024EAE470C11763304FF064024FF00003D3
:101D5C0041F10001FEF78CFB756802460B4610350D
:101D6C0000200021CDE90001284603F049F9E5E700
:101D7C000000AD0B2DE9F0474768904697F83820E6
:101D8C0005698A46501EB96C424242414C076E6846
:101D9C0007F104094FEA820241D4341E18BF012412
:101DAC0064001443890744F0010442D45A1C3BD00C
:101DBC000622042B86F88C2033DD052293FBF2F0EF
:101DCC00633064220023C117FEF752FB1022C6E9D0
:101DDC0020017B68C3F80423C6E902A80835D5E8BE
:101DEC00EF3F43F00203C5E8E23F002AF7D121465A
:101DFC00484601F06FFE114B98421DD0D5E8EF3FDD
:101E0C0023F00203C5E8E23F002AF7D10C4B9842BD
:101E1C0014BF6FF004006FF00F00BDE8F0870024D2
:101E2C00BFE700200146D1E700220023C6E92023AA
:101E3C00D2E76FF08500F0E70020EEE70000AD0B75
:101E4C000B00AD0BF7B5044600220121C620FFF7AD
:101E5C001BF8C620FEF7FCFF656800216F6C01AA19
:101E6C003846266903F017FE00282BDB019B3A68E5
:101E7C0019791868FFF760FE002823DB2968E1B99F
:101E8C00706808BB2369254A5B6805F10C01002BBF
:101E9C0008BF0022281D01F05FFC214B984235D170
:101EAC0063689A6C52071FD4226952681AB9AC6CD9
:101EBC0014F002041FD0002004E0306804F009F98B
:101ECC000028DDDA03B0F0BD00221649483004F0DA
:101EDC0053FC7368DC67706800221349103004F0FF
:101EEC004BFC73685C64CDE7AB6C9B07E3D420467A
:101EFC0000F0ACF8DFE71D1D996A0122284601F0BD
:101F0C007BFE2146284601F0E5FDD4E7074B034450
:101F1C00072BD0D8064AD056D4E700BF775B000019
:101F2C000000AD0B0F5B0000D75A0000FCFF52F411
:101F3C000C75000037B544680B4D8DF80710043450
:101F4C000223012220460DF1070101F0B5FCA84245
:101F5C0008D102F063FB0028F2D000210A2002F025
:101F6C00DBFDEDE703B030BD0B00AD0B70B50446E7
:101F7C0001F10C000D4603F0B2FE2A7E014670B151
:101F8C0063681B685B69DD68636806481B68AC4660
:101F9C00DB69B0FBF3F32046BDE8704060476FF09F
:101FAC000F0070BD00E1F5052DE9F7430369044608
:101FBC001E68436806F10C078946384601A9D3F818
:101FCC00008003F0C0FE054650B102460199484618
:101FDC0004F06AFC2946384603F0F4FEF36A0BB9A8
:101FEC0028462EE00028FBD0384603F078FE074642
:101FFC0096F8189006F12C03D3E8EF1F0139C3E8CB
:10200C00E21F002AF8D1D8F814304A463946204647
:10201C001B6998470028E3DA10F10D0F11D100234A
:10202C00F36263681B685B69DE686368064A1B6859
:10203C003946DB692046B2FBF3F34A46B047002829
:10204C00CEDA03B0BDE8F08300E1F50538B50369DD
:10205C000C491C68436822461B6805465B691B6873
:10206C00984700280DDB21462846FFF77FFF40B933
:10207C003834D4E8EF3F43F00803C4E8E23F002AC9
:10208C00F7D138BDE75E0000F8B515461C4604F0E4
:10209C0034F8A84271EB040417D30C4C6422D4E935
:1020AC000065801B61EB05010023FEF7E1F9642755
:1020BC00A0FB073207FB01219B1941EB0501C4E989
:1020CC000031BDE8F84002F0ABBEF8BD00020020C4
:1020DC0038B5224C0022D4F81837012123F44033B0
:1020EC0043F48033C4F81837D4F81035E42023F0C7
:1020FC000203C4F810350523C4F8A4360423C4F82D
:10210C00AC36FEF7C1FE002000F05AFF144B05461A
:10211C00984208D10120134900F0E6FFA84205D0EF
:10212C00114B984217D04FF0FF3038BDD4F84837D8
:10213C0043F00103C4F84837D4F84037D4F8445777
:10214C0015F08045F8D16722084B02201A60FFF782
:10215C00B9FA2846E9E76FF00B00E6E700200E50CD
:10216C000000AD0B2C0000200200AD0B98040020E9
:10217C0010B503F0C2FF064AD2E90034C01A4FF082
:10218C0064024FF0000361EB0401FEF771F910BD1E
:10219C0000020020431C2DE9F34145D00128B8BFB3
:1021AC000120441E03F0A9FF06468846264B6422F4
:1021BC00D3E90057D5F1630067EB470180194FF065
:1021CC00000348EB0101FEF753F903194FF06400CB
:1021DC0041EBE472A3FB003100FB0211AD1B67EB7A
:1021EC000807581941EB070150EA010304466FF048
:1021FC00630208BF01240D464FF0310308BF0025D0
:10220C00A24273EB05063CBF14461D46B0F1004FCD
:10221C0071F100010BD20023012221460B4802B0C0
:10222C00BDE8F04100F0D8BF6FF00044BAE703F00E
:10223C0064FF012322180093044845EB010300F0CE
:10224C009DFF02B0BDE8F0810002002024000020B8
:10225C0003689A070CD50368DB070DD50922074BD9
:10226C00C3F80C250F22C3F8042501221A60FEE7DF
:10227C00034B0360EF3B0360704700BF00801050BE
:10228C00F000FA50064BD3F80438012B05D0032B81
:10229C0002D1044B044A1A607047024B034AFAE716
:1022AC0000001250300000200090D0030020A10745
:1022BC00012208B51D4B1E48C3F80028FFF7C8FFC4
:1022CC000830FFF7C5FF0830FFF7C2FF0830FFF7F3
:1022DC00BFFF00F5F470FFF7BBFF164AD2F88C3045
:1022EC0043F44063C2F88C300022D30003F57F0323
:1022FC0003F54043D3F8001401310AD0D3F800148D
:10230C0039B1D3F800140132D3F80434402A0B60ED
:10231C00EBD1084AD2F88C3043F44063C2F88C30CD
:10232C000022054BC3F8A02508BD00BF00001250C9
:10233C0000C50D5000ED00E000B0045030B504684D
:10234C00ACB1B4FA84F30122C3F11F03DBB29A409F
:10235C0024EA0202D0E8EF5FA54204D1C0E8EC2FDA
:10236C00BCF1000FF6D1EAD102480B7030BD024827
:10237C00FCE700BF0000AD0B0200AD0B10B503680D
:10238C00CB40DB0710D401238B40026843EA0201E7
:10239C00D0E8EF4F944204D1C0E8EC1FBCF1000F21
:1023AC00F6D1F2D1014810BD0148FCE70000AD0B9D
:1023BC000400AD0BF7B5044618B1012822D003B0C8
:1023CC00F0BD0422284B0646C3F8082301225A61AB
:1023DC00C3F80801D3F80831002342F21075224FDC
:1023EC008DF80730D4B1012CE9D1D7F80C3403F4B3
:1023FC0080338EBB002BE2D0012003F088FE013D20
:10240C00F3D1DCE70022184B0DF10706C3F80803E3
:10241C005860C3F80021D3F80031DDE7D7F84C340D
:10242C0003F480333EB9002BC9D0012003F06FFEBA
:10243C00013DF3D1C3E7D7F84C2402F0030232700C
:10244C00002BBCD09DF80730002BB8D1012003F035
:10245C005EFE013DC6D1B2E7002B0CBF0123002369
:10246C003370EFD1ABE700BF00E01050044B1A798A
:10247C0022B9012218601A7102487047024870474D
:10248C009C0400200000AD0B0C00AD0B08B5084BF4
:10249C001B6843B14FF48770FEF7E8FC18B94FF492
:1024AC008770FEF7D5FC0022024BC3F8402408BD10
:1024BC009C04002000E0105010B510B1012844D04D
:1024CC0010BD274BD3F84C14D3F84C24C80323D598
:1024DC0002F00303012B04D013B10020FFF76AFFB5
:1024EC0000231F4A0420C2F8403410224FF4847396
:1024FC00002103F1A04303F5871319601C68012424
:10250C0002F1A04202F587121460164A126802B357
:10251C00134BC3F80403D3E7D3F84824D107DFD512
:10252C00D3F850249207D8D40E4A12681AB1042258
:10253C00C3F80423C4E7D3F80821002AFBD00022F7
:10254C00C3F80821D3F80831BAE700224FF480739E
:10255C00CEE71A68002AFCD019601B68B0E700BFF0
:10256C0000E010509C04002010B51E4BD3F8002145
:10257C0052B10020C3F80001D3F800210122C3F8A6
:10258C000823194B1B689847164BD3F8082172B1D6
:10259C000022C3F80821D3F80821D3F84C24D3F82F
:1025AC004C24920714D10122C3F840241A610D4B1C
:1025BC00D3F80421A2B100220220C3F80421D3F8DD
:1025CC000421C3F80803084BBDE810401B681847EA
:1025DC000422C3F80823044B01201B689847E6E744
:1025EC0010BD00BF00E010509C040020036803F0F5
:1025FC001F025F2B02604FEA53129ABF024B53F833
:10260C0022000020704700BF88740000034A430971
:10261C00D35C00F01F001844C0B270471F75000057
:10262C0070B505460846FFF7F1FF32212A79174BA2
:10263C0001FB0202083233F81200C10525D56424CF
:10264C000026C0F3432120F4F85023F812002A7915
:10265C0004FB02340E3434F8020F10F4807F03D0E4
:10266C00C0F34320814210D00136202EF3D16420D8
:10267C000024424302EBC1029C502A79BDE8704011
:10268C0000FB02305830FFF779BE70BD34000020DB
:10269C00F0B50646002487B0114F019117F8012BB5
:1026AC0006AB03EBD20313F8143C02F00702D34041
:1026BC0013F0010306D10134032CEFD1002318468B
:1026CC0007B0F0BD074A03AD07CA85E8070055F807
:1026DC0024100A6A46F824200A62002AEBD0EEE79E
:1026EC002F7500007072000010B504460846FFF705
:1026FC008DFF322303FB0400024B083033F810002B
:10270C00400B10BD3400002010B504460846FFF7FE
:10271C007DFF322303FB0400034B083033F8100019
:10272C00C0F3400010BD00BF3400002010B50446BB
:10273C000846FFF76BFF322303FB0400034B083002
:10274C0033F81000C0F3401010BD00BF340000205F
:10275C002DE9F04F0D46D0F8141387B0C9B241F4EF
:10276C0000312A6D009003F04DFD810306462ED5F5
:10277C000023E96D03A8CDE903330593FFF788FF28
:10278C00DFF868A1DFF868B10DF10C091AF8013B0C
:10279C0005EBD30292F85C2003F0070322FA03F353
:1027AC00DA076AD4534B09F1040953450BF1010BB9
:1027BC00ECD14FF400312A6D009803F023FDE96D44
:1027CC0003A8FFF765FF0028DAD126F400360124B0
:1027DC00002E73D107B0BDE8F08F91FAA1F1B1FAD8
:1027EC0081F19BF8004041EA44142046FFF70EFFAC
:1027FC00083035F81080C8084FEA9803019301237C
:10280C0019F8002001F0070103FA01F122EA010294
:10281C0009F8002002A80294FFF7E8FE029A019B37
:10282C00203250F82220C8F382075B07B846C2F367
:10283C00014227D52846D7B22146424603F0C3FCB5
:10284C0002A80294FFF7D2FE029B203350F82330EB
:10285C00C3F301439F4207D10021204603F0A4FC9F
:10286C003946204603F0A0FC02A80294FFF7BEFEF6
:10287C000122029B02FA03F30362D9F8001000292B
:10288C00ABD18FE7022A0DD10321204603F08CFC3B
:10289C0007F00503012BE7D142462146284603F0F9
:1028AC0092FCE1E702212046019203F07DFC032F0C
:1028BC00F2D0019A032AD7D1022FECE796FAA6F3AD
:1028CC00B3FA83F304FA03F226EA0206009A2846C6
:1028DC0002EB8303D3F81015D3F81025C1F30811BC
:1028EC00C2F3014203F06FFC72E700BF2F750000CA
:1028FC002F750000327500002DE9F7430546084698
:10290C00FFF784FE32222B79204F02FB030308339E
:10291C0037F813300E46DB07044635D5284603F04E
:10292C0098FC95F8049031464846FFF7FFFE60B1DD
:10293C004846FFF7D9FE0022D5F8008000B208EB1C
:10294C008003C3F81025C3F8102528463146FFF73D
:10295C0067FE32222B7901A802FB034400230834C2
:10296C0027F814300196FFF741FE019B00EB830022
:10297C00D0F88020064B134043F00203C0F880309F
:10298C00044803B0BDE8F0830348FAE734000020A4
:10299C00F0F0FCFF0000AD0B0400AD0B2DE9FF4780
:1029AC00174604460846FFF731FE3E688846054642
:1029BC0076B394F804904846FFF7A6FE18B1484643
:1029CC00FFF7B4FEA0BB00234046CDE900338DF8E1
:1029DC000E308DF80F300DF10F0233460DF10E0154
:1029EC0003F099FB32202379644A00FB035308332C
:1029FC0032F8131021F0020122F81310237900FB96
:102A0C000353083332F8131041F0010122F813106C
:102A1C007B68002B45D026794146304693F80090D0
:102A2C00D3F804A0FFF770FE20B1BAF1000F22D04A
:102A3C00534839E04FF0320C0CFB06564F49083620
:102A4C0031F8163023F4604323F0200321F81630BC
:102A5C00BAF1000F0FD0B9F1030FE9D87B682668E3
:102A6C005B68187806EB8006B9F1000F1FD1C6F829
:102A7C001095C6F8109532202379404A00FB035379
:102A8C00083332F8131021F01C0122F813102379AB
:102A9C0000FB0353083332F8131041EA890122F882
:102AAC001310BB6863BB374804B0BDE8F087D6F899
:102ABC00102522F00302C6F81025226802EB8003D1
:102ACC00D3F8102522F4473222F47C72C3F8102577
:102ADC0041F6F072D3F8106502EA081242EA094294
:102AEC003243C3F8102523790CFB0353083331F818
:102AFC00132042EA403242F0200221F81320BAE7B8
:102B0C004146D3E900972046FFF78AFDB9F1000F43
:102B1C00C9D064232079194E4343F218F3589945D0
:102B2C0004D153689F4201D100210CE0642303FBC4
:102B3C0000600DF10F015830FFF700FC114B98426B
:102B4C00B2D19DF80F1064222379534303EBC103D8
:102B5C0046F8039023795343322203EBC1033344E9
:102B6C005F60237902FB0353083336F8132042EAE3
:102B7C00412242F4807226F8132094E7340000209E
:102B8C000400AD0B0000AD0B2DE9FF4705460846D0
:102B9C0017461E46FFF73AFD8946044687B395F85B
:102BAC0004804046FFF7B0FD18B94046FFF7BEFD64
:102BBC0068BB322303FB0848DFF8E4A008F10808DF
:102BCC003AF8183013F01C0F02D07B78012B1ED072
:102BDC0001238DF80F3000237A1CCDE90073484691
:102BEC00BB1C0DF10F0103F096FA32222B7902FB7C
:102BFC00034308333AF8132042F003022AF8132057
:102C0C00002E4BD049462879FFF77EFD18B9254890
:102C1C0004B0BDE8F08700214FF0320C30782B68FF
:102C2C00820003EB8003C3F81015C3F810152B7941
:102C3C001B490CFB0343083331F8137027F460472E
:102C4C0027F0200721F8137077783FB32B68B678FC
:102C5C001A44D2F810E5144B3F040EEA0303C2F8F1
:102C6C00103541F6F07307F4403703EA09133605C3
:102C7C00D2F810E53B4306F48016334343EA0E03C7
:102C8C00C2F810352B790CFB0344083431F814309E
:102C9C0043EA403343F0200321F814300348B7E7EC
:102CAC00340000200400AD0B0FE0ECFF0000AD0B76
:102CBC0030B564250479044B05FB0434A16001791B
:102CCC0005FB0133DA6030BD3400002070B50679A5
:102CDC0014463046FFF72AFD68B10846FFF796FC0C
:102CEC00322303FB0600054B083033F81030044840
:102CFC005B0B237070BD0348FCE700BF3400002061
:102D0C000000AD0B0400AD0B2DE9F0410646077930
:102D1C0064201B4D00FB075898F860406CBB404684
:102D2C0021464022103003F0E6FD21463668D8F8E3
:102D3C005000884217D10023C6F30830C6F844313E
:102D4C000130D6F84431FEF783F84FF40033C6F85F
:102D5C001433642303FB075501230A4885F86030BC
:102D6C00AB65BDE8F081CBB29B0003F58072442BC0
:102D7C0004BFB450B3580131DBE70348F1E700BF9F
:102D8C00340000200000AD0B0C00AD0B6421027967
:102D9C00044B01FB023393F86000003818BF01208C
:102DAC00704700BF3400002064235422007913FBC9
:102DBC00002302481844FFF7E1BA00BF340000209A
:102DCC0064235422007913FB002302481844FFF7B4
:102DDC00B5BA00BF340000202DE9F3410679044652
:102DEC0030460D461746FFF7A1FC08B33046FFF7F7
:102DFC008BFC8046E0B93046FFF776FC05B22168C3
:102E0C00AD0005F5807241F802808A58216829448A
:102E1C00D1F8102542F00102C1F810252FB1012282
:102E2C00216802FA00F3C1F8143302B0BDE8F08156
:102E3C002846FFF7EBFB322303FB06000E4B083052
:102E4C0033F81030C3F38203042B11D0052B11D0AF
:102E5C0001A80195FFF7CAFB019BC168D94001F09D
:102E6C0001010231284602B0BDE8F04103F09CB9E3
:102E7C000321F7E70221F5E734000020014902485D
:102E8C00FFF766BC3400002000A00D500149024839
:102E9C00FFF75EBC9800002000C0105070B50023F6
:102EAC0067240126027A94FAA4F1B1FA81F19142D5
:102EBC0003F1010518D100210C24120102F1A042EA
:102ECC0002F56222C2F82C150A4ADBB204FB03237A
:102EDC000168D960416819610121007A18759368FD
:102EEC0081400B43936070BD06FA01F12B4624EA36
:102EFC000104D8E7FC00002059B10021094A8300E5
:102F0C00D150D25801229B0802FA03F3064AC2F8A8
:102F1C0024330123000100F1A04000F56220C0F829
:102F2C002C35704700210E5000200E50012303FA5F
:102F3C0000F010F0670F0AD0064B5B68DB4303F020
:102F4C0067030342044B054818BF184670470448F2
:102F5C00704700BFFC0000200000AD0B0400AD0B5F
:102F6C000800AD0B00230022F0B5C0E90023104B84
:102F7C00D3F810359B0719D5EFF31181202383F378
:102F8C001288BFF36F8F4FF0FF356FF04044094E3E
:102F9C00D6E90023954274EB0307F9D3C0E900236B
:102FAC0081F31188BFF36F8F0348F0BD0348FCE732
:102FBC0000200E5040270E500000AD0B0100AD0B51
:102FCC00F8B53F4D2A78002A76D13E4BD3F8101530
:102FDC0021F00201C3F81015D3F8101521F00101EE
:102FEC00C3F810150521C3F8A4160421C3F8AC16B8
:102FFC000723672101F001000244013BD2B24FEAE2
:10300C005101F7D1052A59D11A4601272C48002421
:10301C0067265FFA82FE96FAA6F15FFA84FCE64513
:10302C00B1FA81F142D80132052A017500F10C0088
:10303C00EDD10120002424499A0800FA02F212F082
:10304C00670F1CBF5C505A580433302BF4D1E4206A
:10305C00FDF7FEFE1B4B1D49D3F8102503F5C0737D
:10306C0022F00202C3F8902340F6FF72C3F8A821A5
:10307C0000221A60A3F5807004338B420260F8D1F1
:10308C000126104C124BA66626661B68114A5D2061
:10309C00B3FBF2F35843104B33439847D4F84837FB
:1030AC000E483343C4F848372E70F8BD07FA01F1C7
:1030BC0026EA01060134AEE70948F6E70948F4E7C9
:1030CC00FC00002000200E5000210E50B0210E50AC
:1030DC003000002040420F00907200000000AD0B49
:1030EC000C00AD0B0100AD0B73B5204C05466368AD
:1030FC000E4603F0010304F1140101A80193FFF73C
:10310C001DF91B4B98422CD100233370636823F0BC
:10311C0001036360A36843F00103A360154BD3F86C
:10312C00102592071FD4D3F8102542F00202C3F8E1
:10313C001025B5B1D3F8482712F0010202BFD3F81D
:10314C00481741F00101C3F848170A4BD3F868112E
:10315C000029FBD02AB9D3F8482722F00102C3F882
:10316C00482702B070BD0448FBE700BFFC000020FC
:10317C000000AD0B00200E500C00AD0BF8B5044652
:10318C00007A1D46FFF7D2FE124B174698420646B0
:10319C001ED12046FFF782FEEFF31183202282F32B
:1031AC001288BFF36F8F217AC5F31305090101F162
:1031BC00A04101F56221C1F82075C1F8245583F3B3
:1031CC001188BFF36F8F9DF81810207AFFF794FECB
:1031DC003046F8BD0000AD0B2DE9F8430646007AE9
:1031EC009946FFF7A3FE134B0D46984217468046AF
:1031FC001DD13046FFF752FEEFF31182202383F3EB
:10320C001288BFF36F8F347A25F00045240104F146
:10321C00A04445EAC97504F56224C4F8285582F324
:10322C001188BFF36F8F3946307AFFF765FE404641
:10323C00BDE8F8830000AD0B2DE9F3412E4D0020C5
:10324C006B68AA68DB4303F0670313401C46012735
:10325C0084467CBB4FF00108284B274ED3F82073D3
:10326C000740307D08FA00F33B420FD0F16869B19A
:10327C000201D6F810C002F1A04202F56222D2F887
:10328C002435D2F82025CDF800C088470134052C10
:10329C0006F10C06E5D1194BD3F8682142B3D3F8EB
:1032AC0020335B0124D56B6D13B3A86D02B0BDE860
:1032BC00F041184794FAA4F6B6FA86F6B20002F575
:1032CC008071920807FA02F213420CD001F1A0416E
:1032DC0001F56221D1F800E0BEF1000F03D0C1F876
:1032EC0000C00968104307FA06F624EA0604B0E7A2
:1032FC0002B0BDE8F08100BFFC00002000200E50A1
:10330C007FB500250C46C0F810511646D0F8102198
:10331C00D0F8002222F02002C0F800220D4AC0F89A
:10332C00082302F0F1FF8D600D6104F14C000A4995
:10333C0003F000F810222946684603F0DCFA042357
:10334C0068468DF800300196D4E90013984704B014
:10335C0070BD00BF20021800FF0F00FF2DE9F041E7
:10336C001E468B6805460C46174653B14B68002B1E
:10337C004BD1D0F84C21002A47D0C0F84C31D0F8B2
:10338C004C31E269C4E9027682B39642A16920D23B
:10339C004FF0000832463846C4E9028803F084FA3C
:1033AC00E269A069921BE261811903F08AFA6368F1
:1033BC0063B139463246204602F092FFE36C990421
:1033CC0004D5424621462846FFF79AFF1948BDE826
:1033DC00F081384603F068FAE3694FF40021636228
:1033EC00002304F14C00E36102F0AFFF616AE36873
:1033FC00A2685B1A0A44C5F80427C5F80837E36CC1
:10340C00DA04E3D50123AB62E0E723697BB9C4E9B5
:10341C000476C5F80477C5F80867E36C5B0442BF13
:10342C00D5F8003243F02003C5F80032CEE702484D
:10343C00CDE700BF0000AD0B0B00AD0BF8B503469C
:10344C0016481646C26C0D469203046A05D40A4609
:10345C001946BDE8F84002F043BF2068E0B1A76A06
:10346C000A463844194603F01FFAA36AEA1863683F
:10347C00A2629A4200D07EB12168084802F030FF67
:10348C00D4E90201002384E80300C4E90233A362F7
:10349C0011B1012384F82D30F8BD00BFA404002025
:1034AC0013B50023044601AA4FF48071019302F076
:1034BC0089FF4FF48271204602F084FF4FF488712B
:1034CC00204602F07FFF4FF4A671204602F07AFFEF
:1034DC004FF48671204602F075FF4FF4B47120460C
:1034EC0002F070FF4FF48A71204602F06BFF4FF42C
:1034FC009271204602F066FF4FF4A871204602F04C
:10350C0061FF4FF4B671204602F05CFF4FF49871E6
:10351C00204602F057FF220304D4A30544BF034BFB
:10352C00D3F80C37019802B010BD00BF00600C50EE
:10353C002DE9F04F85B090F8048001905020684D33
:10354C000C4600FB0850416849B113F0020304D04B
:10355C00836B002B00F0B3800123009300E00091FB
:10356C00502303FB0853DB6CD90600F1A8804FF005
:10357C000109A3180293029BA34200F0AA805023D6
:10358C0004F060420392019A1679126803FB06510B
:10359C008F6BDFB90399B1F1005F40F09E80EFF3C0
:1035AC00118A202181F31288BFF36F8F03FB065B16
:1035BC00DBF84C10104601F0010102F073FE38B933
:1035CC008AF31188BFF36F8F5023DCE70127E6E7FE
:1035DC00DBF84430002BBCBFD2F84437CBF8443076
:1035EC00A34657B1502000FB06502778D0E90E13A4
:1035FC00CF54D0E90E1301EB030BBBF1000F03D03A
:10360C00C2F83CB7C2F840970023C2F86831D2F830
:10361C006811C2F83031D2F83011C2F86C31D2F8DE
:10362C006C310823C2F80035009BCBB14FF48053AA
:10363C00C2F80433C2F850908AF31188BFF36F8F2D
:10364C00502000FB08525368002B40D1D36C1B0751
:10365C003DD510466FF008014C3002F06BFE2EE0A9
:10366C00C2F850908AF31188BFF36F8F502303FB7D
:10367C000653D96C01F00101104602F013FED2F88A
:10368C004477D2F83C37E0B99B45F5D009B9C2F87C
:10369C005490144FEFF3118A202383F31288BFF355
:1036AC006F8F06EB8606104605EB061102F09FFEA7
:1036BC008AF31188BFF36F8F0A4B9F42C0D00A4820
:1036CC0008E09B45E2D1002FE0D1074FE2E701343F
:1036DC0051E7044805B0BDE8F08F0448FAE700BF95
:1036EC00A40400200000AD0B0800AD0B0400AD0BD2
:1036FC00F0B4184F026891F82C6091F82D4091F8B5
:10370C002E500B8E896ABA4208BFC908C2F824151C
:10371C00334344EA05010B43C2F86C3500230068BF
:10372C00C0F84C31D0F84C21C0F86831D0F8682181
:10373C00C0F81431D0F81421C0F82431D0F8242169
:10374C00C0F83031D0F83031F0BCC0F30830FDF7A0
:10375C007FBB00BF00A004502DE9F34790465022D8
:10376C0090F804904F4C02FB09FA04EB0A070D4643
:10377C0097F848100646002940F0828009EB890032
:10378C0004EB001003F0B7F82B6944F80A306B69AE
:10379C00BB63AB690BB1013BFB632B6A042B17D9E1
:1037AC00502707FB0947EB69BB61686A80B12B6A3C
:1037BC00302200214FEA530A386203F09CF83B6A2E
:1037CC00C3F820A03A6AEB6913613A6A53449361D7
:1037DC003268D2F8003243F48023C2F8003250230E
:1037EC0003FB09440123C4F8048084F8483034688E
:1037FC00D4F85021EAB929463046FFF779FF082260
:10380C00002334688DF80730C4F800250DF1070249
:10381C00C4F83C27C4F8403701230A2523656365A7
:10382C00D4F8303173BB012002F071FC013DF7D1AB
:10383C0020E008226427C4F80025E362D4F8243180
:10384C00E3B9D4F81431CBB90A2002F060FC013F83
:10385C00F4D10023C4F85031D4F85021C4F84C31C1
:10386C00D4F84C21C4F82431D4F82421C4F8003500
:10387C00002FC0D10C4802B0BDE8F0870127E8E763
:10388C000A48F8E70023C4F868319845D4F8682151
:10389C00C4F80035064B08BF002332680548C2F84F
:1038AC000433E8E7A40400200100AD0B0C00AD0BC1
:1038BC00200218000000AD0B2DE9F04782460D46A2
:1038CC001C46904690F804C0002A77D04FF050095F
:1038DC00DFF824E1066809FB0CE9D9F8047067B934
:1038EC005BB9D9F82C40002C6AD1C9F82C20FFF711
:1038FC001FFEC9F82C40BDE8F087A00707D023466F
:10390C00424629465046BDE8F047FFF711BE05F088
:10391C006043B3F1005F4FF0500303FB0CE321D085
:10392C009B6B002B4ED061074CD40122EFF3118717
:10393C00202383F31288BFF36F8F502303FB0CE318
:10394C00D96AC1B9C3E90A581AB1D96C41F002015C
:10395C00D9640CEB8C0C30460EEB0C1102F06DFDA7
:10396C00264822E0DA6C12F00102DFD014F00402D7
:10397C00DCD02348BFE75A6BE2B962071AD59A6AC2
:10398C0002F06042B2F1005F16D10A24DA6CC3E98E
:10399C000C5842F01002DA64D6F86C31A3B901204D
:1039AC0002F0B5FB013CF7D1164887F31188BFF341
:1039BC006F8FA0E71448F8E71148F6E713489AE729
:1039CC00114898E7124896E74FF08062DAF8003019
:1039DC00C3F80423D6F8003223F48023C6F800324F
:1039EC000023C6F86C31D6F86C31002DB8D0C6F86F
:1039FC003C57C6F84087B3E7A40400200000AD0B89
:103A0C000800AD0B0100AD0B0B00AD0B0600AD0BB0
:103A1C000A00AD0B2DE9F0474FF0500906792A4DFD
:103A2C00046809FB0659D4F80483D9F82C308A466B
:103A3C00C4F8088323B92548C4F80483BDE8F0878B
:103A4C0006EB86073F0107F14C000821284402F0E1
:103A5C007CFC01236365BAF1000F2BD0D9F84C1014
:103A6C0001EA03021146204602F01CFC0028FAD0A1
:103A7C00EFF31189202383F31288BFF36F8FEAB918
:103A8C00D4F868314BB101236365D4F83031002B85
:103A9C00FBD02046E91902F0AAFC89F31188BFF388
:103AAC006F8F0023C4F86831D4F86821502202FBD0
:103ABC000655EB620648C4F80483BFE7D4F83031EE
:103ACC00002BE6D1E9E700BFA40400200500AD0BF4
:103ADC000000AD0B2DE9F84390F804903F4F09EB33
:103AEC0089052D0105F14C08B84404680E46404682
:103AFC004FF4805102F029FCC3046AD4700705D539
:103B0C00502303FB09739B69002B64D0344BB10326
:103B1C00C4F808330823C4F800350023C4F84C312A
:103B2C00D4F84C21C4F85031D4F85021C4F82431C5
:103B3C00D4F82431330303F4005301F480417603A9
:103B4C00194306F400463143502606FB09764046DD
:103B5C0002F0FBFBB3683D447BB9736833B9404654
:103B6C00204902F0E7FB2048BDE8F88303212846F2
:103B7C0002F0A5FBB368002BF1D0D4F80433D906BE
:103B8C0010D5502303FB09735A685AB1DB6C1A0326
:103B9C0008D56FF40021404602F0CCFB06212846E4
:103BAC0002F08DFB502303FB0973DB6CDB0401D4A7
:103BBC000E48D9E7D4F850310BB90123A362502336
:103BCC0003FB09735B68002BF2D0054BC4F804337C
:103BDC00EEE70748C8E70748C6E700BFA404002083
:103BEC0020021800FF0F00FF0200AD0B0000AD0B10
:103BFC000B00AD0B0800AD0B2DE9F047154601F09D
:103C0C006042B2F1005F4FF0500207680379D7F8B9
:103C1C000483DFF8A4A003EB83090E4602FB03A385
:103C2C004FEA0919C7F808833AD01C6A002C3CD01B
:103C3C005A68002A39D02268EAB9C4E9001520462E
:103C4C00C4E90922266902F0DDFB40F201130546A6
:103C5C0009F14C004FF40031A385504402F075FB80
:103C6C002B46324638460AEB0901FFF777FBC7F8BB
:103C7C000483BDE8F087A268CAB9C4E902151B69C0
:103C8C00BBB9204602F0BEFB94F82C3005465A1CFA
:103C9C0003F0010384F82C20023354F83360DFE77F
:103CAC00DB6C9B03DCD50548E1E70548DFE70548FD
:103CBC00DDE70548DBE700BFA40400200800AD0BDE
:103CCC000A00AD0B0B00AD0B0000AD0B50232DE922
:103CDC00F047324D0779046803FB0753DB6C9246BF
:103CEC0003F48223B3F5805FD4F8002253D1D4F8C7
:103CFC000463C4F8086309B9930640D44FF48421D3
:103D0C00D4F8003223F02003C4F8003207EB870903
:103D1C004FEA091909F14C08A844404602F015FB7A
:103D2C00BAF1000F04D1502303FB07535B687BBB34
:103D3C001B4BC4F808330123E362D4F82431002B65
:103D4C00FBD0502303FB0753DA6C12F4004219D159
:103D5C00DA61204602F0D8FA502303FB0755002302
:103D6C0040461049AB602B6102F0E4FA26F4C01611
:103D7C0026F408760C48C4F80463BDE8F0874FF4C9
:103D8C008031C3E7204605EB090102F0E9FAE0E7D0
:103D9C000123E362EEE70548EFE700BFA40400202F
:103DAC0020021800FF0F00FF0000AD0B0500AD0B4B
:103DBC0010B550240279094B04FB02335B684BB9F4
:103DCC000368D3F84C213AB111B1D3F80C370B601E
:103DDC00034810BD0348FCE70348FAE7A40400209D
:103DEC000000AD0B0800AD0B0B00AD0B502210B555
:103DFC00044603790F4802FB03014968B9B102FB81
:103E0C0003004FF080614C3002F09FFA430101D562
:103E1C00094810BD01212368C3F34342C3F30433A3
:103E2C00994002F14003054A42F82310F0E7044898
:103E3C00EFE700BFA40400200000AD0B00E100E0A0
:103E4C000800AD0B4C22502310B50179044613FB2E
:103E5C0001230A486FF40021184402F06BFA23681E
:103E6C0000F40020D3F8102110431FBF0022C3F828
:103E7C0010210120D3F8103110BD00BFA404002084
:103E8C002DE9FF47B34BB44CD3F80413626811F41B
:103E9C0080511AD1D3F8045315F0806503D0D3F8B0
:103EAC006851002D6ED1002A40F043816FF0806183
:103EBC00AA4802F03FFA430140F11B820721A648B1
:103ECC0004B0BDE8F04702F0FAB9D3F83051D3F89A
:103EDC000413003D18BF0125480103D5D3F8683100
:103EEC00002B50D1002A40F02481002DDED04FF45D
:103EFC0080539848C0F80833EFF31186202585F3DA
:103F0C001288BFF36F8F944902F071FA86F311880F
:103F1C00BFF36F8FE36A002BC8D0A26A002A40F06F
:103F2C009B81EFF3118185F31288BFF36F8FD0F86B
:103F3C00303113B3236B22634FF0FF32A362626400
:103F4C0023B1E26AC0F83C37C0F840270022814B0D
:103F5C00C3F86821D3F86801C3F83021D3F83001D5
:103F6C00C3F86C21D3F86C210822C3F800254FF458
:103F7C008052C3F8042301221A6581F31188BFF320
:103F8C006F8F93E70D46002A00F08B8001272020CD
:103F9C00FFF786FA80B10023CDE9003302930223A8
:103FAC006C4A8DF80030D2F880346846C2F8803400
:103FBC000393D4E9001398474FF40070FFF770FA9D
:103FCC0080464FF48010FFF76BFA81464FF40020C7
:103FDC00FFF766FA5F4B0646D3F80423D1060BD5E0
:103FEC00D3F8102142B100220621C3F810215A48FF
:103FFC00D3F8103102F063F9002E00F0E6804FF098
:10400C00000AE36C534E13F4A02FD6F80C17636A16
:10401C0014BF01220022A0681944FFF70FFAC4F85C
:10402C0024A0EFF31183202282F31288BFF36F8F49
:10403C00DFF82CE1E26CDEE90201C4E904AA8EE8A7
:10404C00030022F4803CC4F84CC0D6F80012500394
:10405C0021F02001C6F800126DD583F31188BFF34F
:10406C006F8FB8F1000F19D0E36C980342BF002298
:10407C00236AC3E90022A06828B101220021FFF7BE
:10408C00DDF90023A360E36C13F4004340F0CA8015
:10409C00E361E26930492F48FFF732F9002F3FF412
:1040AC0024AFE26C2B4B12F0100100F0C080D4E96D
:1040BC000A760021C3F86811D3F86811D3F86C1193
:1040CC0002F008020A4304BF01221A654FF0806314
:1040DC00204AC2F80833D2F8003243F48023C2F8E5
:1040EC000032EFF3118C202383F31288BFF36F8F10
:1040FC001C4BD3E9020183E803000023E16CC4E903
:10410C000C3321F01000E0648CF31188BFF36F8F37
:10411C00090745BF6364D2F844671A4601228DF83B
:10412C0000306846D4E90013CDE901760392984734
:10413C00DBE600272BE7A168B1B9910404D5012275
:10414C00F2624CF48022E26483F31188BFF36F8F28
:10415C003BE000BF00600C50A4040020F0040020E1
:10416C00AC040020CC040020520433D5B9F1000F6C
:10417C000BD083F31188BFF36F8FE36C9E0330D4A5
:10418C0003215D4802F09BF86BE7D6F85021002A1A
:10419C007FF463AF0122B262D6F82421002A3FF4E7
:1041AC005CAF83F31188BFF36F8F0022534B5248DF
:1041BC00C3F82421D3F82411C3F85021D3F850218B
:1041CC0001220521DA6202F07AF8B9F1000F3FF40E
:1041DC0048AFD2E70122B262D6F82421002AB3D02C
:1041EC00DFE7266A304602F00DF9034668B196F80F
:1041FC002C204248511C02F0010286F82C1002328D
:10420C0056F832203C49FFF7A9F896F82D30002BD0
:10421C003FF427AF0321384802F051F8002386F809
:10422C002D301EE73449354802F09AF831E7EFF3A8
:10423C001182202080F31288BFF36F8FD3F86801AE
:10424C0028B1C3F86811D3F868110121596582F3BC
:10425C001188BFF36F8F48E6E16C01F00801EFF3B2
:10426C00118685F31288BFF36F8FE36C5A0727D53D
:10427C00A26A002302F06042B2F1005218BF012280
:10428C0086F31188BFF36F8F206C0344E06A2364BC
:10429C00834200D0D9B1E26CA06A22F00802E26439
:1042AC000022891A18BF0121CDE901030391684648
:1042BC00D4E90013E26222648DF800209847F5E5FA
:1042CC00636C0122002BB8BFD0F84437D8E7EFF36A
:1042DC001185202383F31288BFF36F8FE36C06499B
:1042EC0023F004030548E36402F0A7F885F3118872
:1042FC0045E604B0BDE8F087A404002000600C5033
:10430C0038B5EFF31185202383F31288BFF36F8F39
:10431C00064B9C6802F0F4F885F31188BFF36F8F9D
:10432C002046BDE83840FCF715BD00BFF80400205E
:10433C0038B5094B53F82040013053F82050A542B2
:10434C0000D838BD636823B1204602F0DCF808348D
:10435C00F5E723689847FAE794740000012270B5DA
:10436C00294B032086B01A70FFF7E2FF00F082FEA3
:10437C000420FFF7DDFF254C254D2646AE4204F107
:10438C00300410D300F00AFB204C224EAC4226D352
:10439C0000F018FBFCF7D4F91F4A137B23F0010340
:1043AC00137306B070BD54F80C3C059354F8103CD4
:1043BC00049354F8143C039354F8183C029354F8A7
:1043CC001C3C019354F8203C009354E90A2354E913
:1043DC000C0100F033F954F8303C5E65CDE7D4E9BC
:1043EC000A23B3F1FF3F08BFB2F1FF3F05D052EAF9
:1043FC000301206803D102F0BFF83034C6E7314620
:10440C00183000F093FCF8E72905002068720000D2
:10441C0068720000AB6600008802002008B50348F3
:10442C00034A0021121A02F086F808BD7001002020
:10443C002C0500200023012270B586B0CDE90423A1
:10444C000F220193CDE9023214234FF4A0720446DB
:10445C00114D124E03FB0055114906EBC01602FB21
:10446C000011104B3046009500F0E8F8737B2C746B
:10447C0023F0040373730C4B013403EBC4236B6004
:10448C000A4BEE60D3E8EF1F0131C3E8E21F002AAC
:10449C00F8D106B070BD00BFF8040020080200205F
:1044AC00300D00204B65000030050020F404002086
:1044BC0080B50020A6B0FFF73BFF2C4B03F5006244
:1044CC0082F3088883F30A880024E023284D294EC0
:1044DC0085F82230EC772C766C76AC766B6A264FAE
:1044EC0043F4E0236B6285F82340FCF705FCFCF7F2
:1044FC0043FD4FF0FF33AB62EB62FCF7CDFEFCF7F4
:10450C0063FD40F20113ADF8243006ABB360CDE986
:10451C001E44219401F0E0FF0120FFF709FF022067
:10452C00164DFFF705FF00F06DFA154B75610593FD
:10453C00012314494FF48062CDE9034328463B46DE
:10454C00CDE90144009400F079F806466A7B2846D0
:10455C0022F004026A7302F046F82046FFF76AFF65
:10456C003A4631462846FCF7E5FC00BF30050020F2
:10457C0000ED00E0F80400206943000088020020F0
:10458C0032750000700E002038B50446EFF311852B
:10459C00202383F31288BFF36F8F02F098F848B191
:1045AC000022826702F01FF82946BDE83840074810
:1045BC0000F0B0B9D4E902329A4218BF0133A360BB
:1045CC0085F31188BFF36F8F38BD00BF2A0500201B
:1045DC0013B5EFF31181202484F31288BFF36F8F8E
:1045EC00846844B1013C846081F31188BFF36F8F00
:1045FC00002002B010BD52EA030406D181F31188E9
:10460C00BFF36F8F6FF00F00F3E7CDE90023024685
:10461C00014800F053F9ECE72A050020EFF305837D
:10462C003BB9054B9B68D8897F288CBF00200120A3
:10463C0070470020704700BFF80400202DE9F043BC
:10464C00984685B000F15803C0E91633109B00263C
:10465C0003730423073222F0070543730F9B01EB0E
:10466C0005090F4683734946C0E906668660C67322
:10467C000446FCF7DBF90E9B073020F00700A06620
:10468C00C4E9187502930D9BA9EB000901930C9BCF
:10469C004A460093394643462046FCF72FFC054B0F
:1046AC0066659B6803B1DB6E4846E36605B0BDE802
:1046BC00F08300BFF804002070B506460C4802F0E9
:1046CC008BF80C4D044600B9EC68AB683EB95A7BCC
:1046DC00D20604D1A26912B9DA897F2A05D89C4284
:1046EC0002D0204600F06AFA23466B6170BD00BF11
:1046FC0010050020F804002010B590F90D20044698
:10470C00002A437B06DA03F07F0301464373064815
:10471C0002F05AF8054B9868031B58425841BDE803
:10472C001040FFF7C9BF00BF10050020F80400209F
:10473C0070B490F90D30427B002B29DBD30627D1C6
:10474C0083692BBB134962F07F0242730A4652F80D
:10475C00184F944218BF2346CC6923B9C0E90024F2
:10476C002060C8610CE090F90E5093F90E60B542D0
:10477C000AD0AE4208DD5A68C0E9003210605860B9
:10478C00002070BCFFF798BF9C42E7D01B68E4E7A1
:10479C0070BC7047F8040020002A2DE9F0410CBFD2
:1047AC0010250825437B04461D420E460AD12B4397
:1047BC00D90903F09F0211D14273082D16D00120A4
:1047CC00FFF77AFF1C4B9B68A3422ED1EFF30583B6
:1047DC005BBB3046BDE8F041FCF7D2BA03F01F03D7
:1047EC0001464373154801F0EFFFE6E7A36813B1E8
:1047FC00204601F0C3FE04F1180001F0A2FF4FF0B7
:10480C00000804F15807A56DBD42D8D0002DD6D0B4
:10481C00284601F0B3FE05F1180001F092FF28467E
:10482C00C5F87880FFF784FFEDE786F31188BFF3B6
:10483C006F8FBDE8F08100BFF80400201005002048
:10484C0070B590F90D200446002A437B06DA03F07C
:10485C007F0301464373174801F0B6FF164A637B8A
:10486C00114663F07F03637351F8183FD0698B4294
:10487C0008BF002323B9C4E900100460D4610CE024
:10488C0094F90E5093F90E60B5420ED0AE420CDD89
:10489C005968C4E900310C605C609068031B584295
:1048AC005841BDE87040FFF707BF9842E3D01B6842
:1048BC00E0E700BF10050020F8040020F8B5124B0B
:1048CC000C46DDE9067611469868104A1060EFF345
:1048DC001182202282F31288BFF36F8F9D682846C5
:1048EC0001F059FEB6F1FF3F08BFB7F1FF3F06D00C
:1048FC003A463346064905F1180000F017FA2046EF
:10490C00BDE8F840FCF73CBAF8040020180500207C
:10491C00AB66000049B9EFF3058030B9054B5A6915
:10492C009B689A4201D0FCF72BBA81F31188BFF334
:10493C006F8F7047F804002010B5EFF3118420221C
:10494C0082F31288BFF36F8F427B510704D484F338
:10495C001188BFF36F8F10BD22F004024273FFF772
:10496C00E7FE2146BDE810400148FFF7D3BF00BF6A
:10497C002A050020034648B9EFF3058232B9064AEE
:10498C0051699268914201D0FCF7FAB983F311880E
:10499C00BFF36F8F704700BFF8040020EFF3118155
:1049AC00202383F31288BFF36F8F054B9A68D37B58
:1049BC00013BD37381F31188BFF36F8F704700BF36
:1049CC00F804002038B5EFF31185202484F3128805
:1049DC00BFF36F8F0A4B00209A68D37B0133D373DC
:1049EC00FFF76AFE85F31188BFF36F8FEFF3118029
:1049FC0084F31288BFF36F8FBDE83840FFF7BABF5E
:104A0C00F8040020024B03F11802C3E90622704798
:104A1C00F8040020F8B5EFF31186202383F31288F5
:104A2C00BFF36F8F194CA16804F118054B7B284616
:104A3C0003F07F034B7301F0C7FEA3685A7B62F04F
:104A4C007F025A73A269E169AA4208BF002222B907
:104A5C00C3E900510B60E3610CE093F90E0092F98D
:104A6C000E70B8420ED087420CDD5168C3E90021AC
:104A7C000B6053600120FFF71FFE3046BDE8F84085
:104A8C00FCF77EB98A42E3D01268E0E7F804002014
:104A9C0050EA01032DE9F04105460E4603D1FFF71C
:104AAC00B9FF00202BE0831C71F1FF3329DB01F0EF
:104ABC005DFE2C18EFF31188202383F31288BFF3CB
:104ACC006F8F124F124BB8681860FFF715FEB8685D
:104ADC0010492A463346183000F028F9BA68404687
:104AEC00537B43F010035373FCF74AF901F03EFE7D
:104AFC00201A63EB0303012873F10003D1DBBDE83B
:104B0C00F0816FF00104241AD4E700BFF8040020F0
:104B1C0018050020AB660000B1F1FF3F08BFB0F1F3
:104B2C00FF3F08B506D10A4B986801F06BFD4FF0BA
:104B3C00FF3008BDFFF7ACFFC11709304FF00A0278
:104B4C004FF0000341F10001FBF792FCF1E700BFCD
:104B5C00F8040020014B9868704700BFF80400204F
:104B6C000122044BC01A044BC0105843034B1A5477
:104B7C00704700BF08030020ABAAAAAA2A05002090
:104B8C00C3897F2B12D80A4B1B6863B1094B90F970
:104B9C000E201B689A4209DB437BDB0606D1064BD1
:104BAC00C31A18BF012303F0010070470023FAE772
:104BBC00200500201C0500200802002070B50E4BBB
:104BCC000E4C1E7C054606EB460304EBC304204644
:104BDC0001F0B7FD00220A4B28469A55FFF7D0FF8B
:104BEC0048B1084B2046BDE870401A680649013AA6
:104BFC00D31700F09BB870BDF80400200803002008
:104C0C002A050020200500206D4B000038B5EFF37D
:104C1C001185202383F31288BFF36F8F104B114A39
:104C2C009C681068A04206D1FFF7C8FF85F3118875
:104C3C00BFF36F8F38BD00211B7C11600A4AD35C17
:104C4C00002BF3D02046FFF79BFF0028EED0637BB0
:104C5C00DB0602D12046FFF7F3FD2046E4E700BF58
:104C6C00F8040020180500202A05002008B5064885
:104C7C00064A0749121A01F060FCBDE80840054AD3
:104C8C000549064801F059BC000000206C010020C9
:104C9C0084750000000000008475000000000020F6
:104CAC00034B1B680BB9FDF763BA0020704700BFBC
:104CBC002405002030B570B10B4B5B6898420AD0CC
:104CCC00036843B1D3E90421D0E90445121941EB3F
:104CDC000501C3E90421D0E9003213605A600023B6
:104CEC00C0E9003330BD00BF5801002010B50E4B99
:104CFC001C689C4204D1FFF7D3FF6FF0004010BD3D
:104D0C00FFF7CEFF002CF8D0D4E904321B1A62EB6B
:104D1C00E072B3F1004F72F10001EEDA002AACBF81
:104D2C0018460020EBE700BF58010020B3F1FF3F0D
:104D3C0008BFB2F1FF3FF8B504461D4616465ED0DB
:104D4C008160EFF31187202383F31288BFF36F8FF9
:104D5C00013275F1FF3324DA6FF001032D49D1E9EB
:104D6C0000209B1A4FF0FF3262EB00009E1B60EBA1
:104D7C000500012E70F1000301DA01260020C4E9C0
:104D8C000460254ED6F800C07568B44508BF4FF0D6
:104D9C00000CBCF1000F0DD1C4E900652C607460EF
:104DAC001CE0FFF77DFF013645F10005361845EB99
:104DBC00E070E4E7DCE90420D4E90431934271EBC0
:104DCC00000E1DDAD21ADCF8043060EB0100CCE9DD
:104DDC000420C4E900C31C60CCF804403368B3421F
:104DEC0009D09C4207D10D4B1C6824B9FFF77EFFFC
:104DFC002146FDF7CFF987F31188BFF36F8FF8BD0C
:104E0C009B1A61EB0001AC45C4E90431C4D0DCF859
:104E1C0000C0BEE72003002058010020240500201C
:104E2C002DE9F84FEFF3118C202383F31288BFF395
:104E3C006F8FDFF8B0A0DFF8B0900024C9F8000045
:104E4C00DAF800000025504508BF0020274FE04647
:104E5C00D7E90021D9F8003078B3D0E9046C4FEAD7
:104E6C00E37EB3427EEB0C0B05DAF61A6CEB0E0408
:104E7C00C0E9046421E0B21841EBE671C0E90445D5
:104E8C00C7E90021FFF716FF88F31188BFF36F8F76
:104E9C0083689847EFF31188202383F31288BFF3BC
:104EAC006F8FD9F80030DAF800009B1B5045C446D0
:104EBC00C9F80030CBD1D7E9002100249A1841EB76
:104ECC00E373C7E90023C9F80040FFF70FFF214641
:104EDC00FDF760F988F31188BFF36F8FBDE8F84FC9
:104EEC00FFF794BE58010020240500202003002069
:104EFC0010B5EFF31184202383F31288BFF36F8F67
:104F0C00FFF7CEFE0346054AD2E90001181841EB23
:104F1C00E37184F31188BFF36F8F10BD2003002061
:104F2C00F8B50446EFF31187202383F31288BFF3FF
:104F3C006F8F026822B187F31188BFF36F8FF8BDB2
:104F4C00D0E90A36581C46F10001022871F1000123
:104F5C0027D3012B76F10001BCBF012316465D1E41
:104F6C0046F1FF3601F006FC013041F10001401919
:104F7C0046EB0101012871F1000139DB01F0FAFB6C
:104F8C00013041F100016FF00102401946EB0103C1
:104F9C004FF0FF31121A61EB030320461749FFF75C
:104FAC00C5FE236B01332363236A6BB187F311882E
:104FBC00BFF36F8F2046236A9847EFF311872023A6
:104FCC0083F31288BFF36F8F54F8185FA542B2D0E9
:104FDC00002DB0D0284601F02FFB0023AB6787F3E0
:104FEC001188BFF36F8F2846BDE8F84001F0FBBA7B
:104FFC006FF001024FF0FF33CFE700BF2D4F0000E1
:10500C002DE9F04105461C4690461F46EFF31186EC
:10501C00202383F31288BFF36F8FB4F1FF3F08BFD7
:10502C00B2F1FF3F05D186F31188BFF36F8FBDE856
:10503C00F081531C74F1FF3309DB012A74F1000376
:10504C00BCBF0122002412F1FF3844F1FF3728467F
:10505C0001F077FBDDE906010023C5E90A012B63AA
:10506C0042463B4628460249FFF760FEDBE700BF9D
:10507C002D4F0000014800F0E9BA00BF3775000061
:10508C00F8B50E4B06461D68AB789B0712D56F68BA
:10509C0016F8014B29462CB90A20B847002805DB25
:1050AC00204609E02046B8470028F1DAAB7843F0F7
:1050BC000403AB704FF0FF30F8BD00BFCC720000A2
:1050CC002DE9F04F43688DB01546804602938378E6
:1050DC009A0740F10D8100240E78002E00F00A8111
:1050EC00252E0BD04B1C0393013441463046029BBA
:1050FC0098470028C0F2F6800399EDE74E788B1C98
:10510C00252E0393F0D00027B946BB46BBF11F0FE9
:10511C0038D8A6F12003102B0AD8DFE803F02A09AF
:10512C0009300909092109090928092D09091F0054
:10513C00A6F13003092B33D92A2E37D11BF0400F9F
:10514C0055F8043B40F08280002BA7BF4BF0200B9E
:10515C009946C3F100094BF0280B01E04BF0010B11
:10516C00039B13F8016B0393002ECFD130E04BF06F
:10517C00020B4BF0040BF3E74BF0080BF0E74BF092
:10518C00100BEDE7BBF17F0F19D8A6F13003092BFB
:10519C00D2D81BF0400F03D00A2101FB0737DFE701
:1051AC000A214BF0200B01FB0939D9E72E2E06D131
:1051BC001BF0400F40F09E804BF0400BD0E76C2E64
:1051CC0031D02BD8682E36D06A2E3CD04C2E3AD00B
:1051DC00002F46F02003B8BF2BF04002A3F165016D
:1051EC00BCBF00271FFA82FB022901D9612B2FD1EA
:1051FC0007350727DFF8ACA225F0070508351BF0AB
:10520C00080F66D00AEB070B56465E4563D1A4EB3C
:10521C000A0AA9EB070906EB0A026FE1742E9FD06C
:10522C007A2E9DD0D4E71BF0800F18BF4BF4007B77
:10523C004BF0800B94E71BF4807F18BF4BF4007B82
:10524C004BF4807B8CE74BF4207B89E71F4687E788
:10525C00A6F16301122900F2F080DFE811F01300CF
:10526C004F00EE00EE00EE00EE004F00EE00EE0000
:10527C00EE00EE00EE00FE00E900EE00EE001B007A
:10528C00EE00AF0055F8043B01270DF1180A8DF81C
:10529C001830B4E755F804AB834BBAF1000F08BFD4
:1052AC009A461BF0400F504614BF39464FF0FF3161
:1052BC0001F098FA0746A2E741462020029B984746
:1052CC0000280FDB013EB742F6D34C44B146A41B79
:1052DC0098E74E46F7E7414616F8010B029B9847B4
:1052EC00002892DA98F8023043F0040388F8023070
:1052FC004FF0FF3420460DB0BDE8F08F1BF0800F4F
:10530C0034D01BF4007F2CD0073525F00705AA46B6
:10531C0069685AF8080B2BF010050029ADB237DA82
:10532C00404245F4806561EB41010DF1180B0A23F5
:10533C005A4601F063FAA0EB0B0301936B0662D59E
:10534C00019B25F001019F4289B240F3A180002E00
:10535C0000F0998015F0100240F09C80BB460D4681
:10536C0023E0AA465AF8040BC117D4E7AA461BF44B
:10537C00807F5AF8041B01D10846F5E71BF4007F27
:10538C0019BF48B241F3C01108B241F3C031C2E7B2
:10539C0050EA0103C9D11BF0400FC6D0002FC4D175
:1053AC002BF01102BB46019795B240F2064115EA6B
:1053BC0001021CBF0BF1010B00222CE02BF01002A0
:1053CC000A231FFA82FB1BF0800C49D01BF40071DE
:1053DC0015BF0735AA4625F007055AF8040B1EBF62
:1053EC00AA4669685AF8080B50EA010545D12BF01A
:1053FC0016051BF0400FADB242D0002F40D12BF060
:10540C001702019795B215F0100248D0019B002E9F
:10541C0042D103F1010B29075AD4EB0706D5D94524
:10542C006FDDA9EB0B030199CB465F185B4649E096
:10543C004BF0100B10237826C5E7782B04D1C6F15E
:10544C00780343F01003BEE741462520029B9847A2
:10545C000028FFF647AF023447E608230026B2E7E0
:10546C00AA461BF480715AF8040BBDD01BF40071D2
:10547C001ABFC0B2614680B2B6E72BF0060295B2F5
:10548C000DF1180B54E725F01105BB46ADB28CE7B6
:10549C000D46B8E73B460D4603F1020BBBE7DDF8C2
:1054AC0004B082E77B75000074750000CDE904320E
:1054BC0041462020029B98470028FFF613AF049B1F
:1054CC00059A01339945F1DCA4EB0B019B46CC18F2
:1054DC000AB341463020029B98470028FFF602AFE2
:1054EC008EB901342744391B019B994224DC1D469B
:1054FC0055BB019AA9EB0B0955462244144691441D
:10550C0033E0019F92E7023441463046029B9847B4
:10551C000028E7DAE6E640F206410D42E2D015F04B
:10552C00020F04F10104414614BF2B20202015F476
:10553C00806F18BF2D20E9E741463020029B0134D3
:10554C0098470028CFDACDE606AB013D4146585DC1
:10555C00029B98470028CBDAC4E641462020029BE8
:10556C00013498470028FFF6BDAEA9EB0403002BCD
:10557C00F3DCC1E5704700EBC10040884008704780
:10558C00F8B50346FFF7F7FFB0FA80F0C0F11F0043
:10559C0003EB800CDCF81060CA00171D0C460632B9
:1055AC008DB256B9012101FA00F0D9680143D960D6
:1055BC00CCF81040DD539D52F8BDF1000431585A1F
:1055CC00D85303EBC0009E52C5805D52F4E7043AF9
:1055DC002DE9F041CC1D114424F0070421F0070102
:1055EC000E1BF708B7FA87F24FF00008C2F124053A
:1055FC00AD000735C2F12002ED0804604146A760FA
:10560C00C4F80C80920004F1100001F074F96B00E6
:10561C0043F0010363807B1B04EBC5025900A4F823
:10562C0000805180A21924F83550A2F80280A353AF
:10563C0004EBC7035A88294642F001025A802046DF
:10564C00BDE8F041FFF79CBF002070470FB407B5D1
:10565C0004A951F8040B0191FBF798F803B05DF81D
:10566C0004EB04B07047038B13F0070305D10368F8
:10567C00002B0CBF002003207047022B05D1408B60
:10568C00B0FA80F0400980007047012B05D1036807
:10569C00002B0CBF0020052070470020704710B570
:1056AC000C4600B111B96FF0150010BD081D00F0CB
:1056BC0093F80028F9D1A368032BF6D9F3E72DE969
:1056CC00F0410D4607461946281D90461E4600F02F
:1056DC0094F8044638B13346424629463846A44627
:1056EC00BDE8F0416047BDE8F08110B4EFF31182E2
:1056FC00202484F31288BFF36F8F416110BC012109
:10570C00FBF77CB838B50C46054658B151B10B685F
:10571C0043B14B6833B11C22002101F0ECF800209E
:10572C002C6138BD6FF01500FBE770B505460E46D1
:10573C00FFF7B5FF041E14DBEFF31182202383F374
:10574C001288BFF36F8F4FF6FF716B8B2C8B8B42D4
:10575C0004F0070407D182F31188BFF36F8F6FF049
:10576C000A04204670BD022C0CD101336B8382F3EA
:10577C001188BFF36F8F0023224631462846FFF76E
:10578C009EFFEEE7062C14D8DFE804F00413131385
:10579C00041A0400002333606B683BB9C5E900664A
:1057AC00ACB902212846FBF729F8DAE71E606E60D7
:1057BC00F6E782F31188BFF36F8F6FF00404D0E724
:1057CC0082F31188BFF36F8F6FF08504C9E782F302
:1057DC001188BFF36F8FC4E7034658B1426802F0DB
:1057EC000302012A03D0032A04D1026812B100205B
:1057FC00986070476FF0150070474268034602F0DE
:10580C000302032A4FF00002816014BF10460068A7
:10581C005A6070477047FEF773BD01460068FEF78B
:10582C006FBD08B5FBF7FEF8BDE80840FBF71EB9E5
:10583C0000210120FFF7EFBF036E83F30B88704745
:10584C0080F31188BFF36F8F704772B6002383F318
:10585C001188BFF36F8FBFF34F8F30BF62B6BFF3AA
:10586C006F8F704772B6BFF34F8F20BF80F31188D4
:10587C00BFF36F8F704740E800F313F4803FD8B24A
:10588C0008BF6FF01500704730B50C684B6885B0D9
:10589C000A894D890094013B24F01F04234402F033
:1058AC001F0242EA451223F01F0369468DF80820B7
:1058BC000393FBF7BFFB05B030BD08B5FBF77AFDD2
:1058CC00002008BD10B54468E2681AB1D4E90101A2
:1058DC0000F0EAFF23680020C3F305339B0003F1BB
:1058EC00A04303F58023D3F8002542F01002C3F83F
:1058FC000025D4E90032C3F8082801222368C3F834
:10590C00002810BD0C220369C9B201FB0233186CCC
:10591C0000F00700704770B5C9B20369EFF3118549
:10592C00202484F31288BFF36F8F0C2606FB0134FE
:10593C00246C14F0C00408D0A24206D085F3118860
:10594C00BFF36F8F4FF0FF3070BD012206FB0133A8
:10595C001A6485F31188BFF36F8F436803EBC1039F
:10596C005B6898470020EFE78022FFF7D4BFF8B5BB
:10597C00069F0469C9B2EFF31186202585F31288BE
:10598C00BFF36F8F0C2505FB0144256C05F0070C4C
:10599C00BCF1010F0CD1276486F31188BFF36F8F14
:1059AC00C4E90E23436853F8313098470020F8BD02
:1059BC0005F0C005AF4286F31188BFF36F8F0CBFA3
:1059CC006FF077004FF0FF30F1E713B580240094AF
:1059DC00FFF7CDFF02B010BD10B41C240069CBB290
:1059EC0003FB0400002110BC10470020FCF764BD31
:1059FC00002000F08EBB1046FEF7C6BD43680020A9
:105A0C005B68DB680B607047436802EA01005B6807
:105A1C0021EA020158600020996070474368002019
:105A2C005B6859607047436800205B6899607047F9
:105A3C0043685A68136821EA03000B405060002049
:105A4C009360704710B503695868F8B1884219D152
:105A5C009C680868A142586000D1986000200860DA
:105A6C002AB15A680A609A68596002B99960002094
:105A7C0010E0814206D10868206098688142EDD11F
:105A8C009C60EBE7044600680028F2D1002AE8D1BC
:105A9C006FF0150010BD30B543681360057A44688B
:105AAC0004EBC504A34202D36FF0010030BD5C7956
:105ABC008C4201D00833F0E70020F7E703695868FF
:105ACC0001605B6800205A607047406BFCF7E0B8DF
:105ADC0003695B681BB94068043000F0EDBC002220
:105AEC00D3F88800C3F88820704737B5D0E9202355
:105AFC00002400254830CDE90045FFF781FA03B0BA
:105B0C0030BD70B5436B5C681E6904342046756803
:105B1C00FEF798F938B1042385F88C307068BDE82D
:105B2C007040FFF7E2BF95F88C20013AD2B285F8AD
:105B3C008C20002AF2D12046BDE870401146FEF7B9
:105B4C00C5B810B4036942680833D3E8EF1F41F0BD
:105B5C000100C3E8E40F002CF7D1CB0703D410BC31
:105B6C00101DFEF743B910BC7047F0B5027806461D
:105B7C000D460C6987B0072A6BD8DFE802F0041CCD
:105B8C00666C8A6A579F1422002101A800F0B3FEAC
:105B9C00F36803F001038DF8043073680293B36863
:105BAC0003936B6893F83830012B2DD1606810305B
:105BBC0000F0EEFD28E0816809B363684068D3F813
:105BCC00883063B306278DF80470DF0705D49F0770
:105BDC0021D45A0721D403F008026B688DF80820F1
:105BEC00039005919B6C13F0040302D16268C2F818
:105BFC00883063682846D3E9007201A9B8470423AA
:105C0C008DF804307368029363682846D3E9004228
:105C1C0001A9A0471DE00222DFE70422DDE70222F2
:105C2C00CDE903318DF804200290E2E74A68102197
:105C3C0052686368C2F80813052283F88C206068E8
:105C4C0007B0BDE8F040FFF750BF6368C268C3F807
:105C5C00882007B0F0BD66684F68B16849B1002371
:105C6C00F268381DC6E9023307B0BDE8F040FDF715
:105C7C00C3BF142201A800F03EFE03238DF80430AC
:105C8C00D6E920321343BFD010227B68C3F804231B
:105C9C00BAE71422002101A800F02DFE05238DF88F
:105CAC00043004F10803D3E8EF1F21F00201C3E82C
:105CBC00E21F002AF7D16068483079E70834D4E84D
:105CCC00EF3F23F00102C4E8E12F0029F7D1DB07F5
:105CDC00BFD5284607B0BDE8F04000F0E6B910B5D6
:105CEC0003468068A0B1597B1A7B1C6802FB011229
:105CFC00206801311044227A0130013A0A405A736B
:105D0C000833D3E8EF1F0139C3E8E21F002AF8D1AA
:105D1C0010BD10B511F8013C0430C3F30604144453
:105D2C0064F3060301F8013CD0E8EF3F1344C0E8EC
:105D3C00E13F0029F8D110BD11F8013C43F080037C
:105D4C0001F8013C70470346F0B510465A68002A2A
:105D5C0036D0A0B34FF0000C03F108071D7B9C7BE1
:105D6C001A6805FB04441268DD7B12F904E016196D
:105D7C00BEF1000F18DA12F804E00EF07F0EAE45FB
:105D8C0012D102F804C01A6883F80FC0127A9C7BF7
:105D9C00013A013422409A73D7E8EF2F0132C7E859
:105DAC00E42F002CDAD0F7E7013535440D60125D95
:105DBC00DB7B02F07F02D31A984228BF1846F0BD55
:105DCC001046FCE730B50368027B1C68837B02FB42
:105DDC000333C27B0A44D2B2C273E556002D17DAE4
:105DEC00E55C05F07F05954212D10022E254036870
:105DFC00C2731B7A827B013B01321340837300F127
:105E0C000803D3E8EF4F0134C3E8E24F002AF8D17E
:105E1C00031DD3E8EF4F641AC3E8E24F002AF8D110
:105E2C0080680028D4BF0020012030BD30B5036845
:105E3C001B7A836000231D464373C3814360016852
:105E4C00DAB20C7A944200D830BD047B096804FBAA
:105E5C00022201338D54F2E738B500240160C4608E
:105E6C00446084600D7A4B68B3FBF5F3013BDBB205
:105E7C0003731B0603D4FFF7D9FF204638BD6FF020
:105E8C001500FBE7034610B5D3E8EF0F00EA01025B
:105E9C00C3E8E42F002CF7D110BDD0E8EF3F01335D
:105EAC00C0E8E23F002AF8D1704710B503690446F8
:105EBC00186800F13803D3E8EFCF4CEA010CC3E8C3
:105ECC00E2CF002AF7D10830FFF7E7FF63682046DE
